:020000040800F2
:1000000000000120050D00089D0B0008A50B00084D
:10001000AD0B0008B50B0008BD0B00080000000088
:10002000000000000000000000000000C50B0008F8
:10003000D30B000800000000E10B0008EF0B0008E4
:10004000550D0008550D0008550D0008550D000808
:10005000550D0008550D0008550D0008550D0008F8
:10006000550D0008550D0008550D0008550D0008E8
:10007000550D0008550D0008550D0008550D0008D8
:10008000550D0008550D0008550D00080000000032
:10009000000000000000000000000000550D0008F6
:1000A000550D0008550D0008550D0008550D0008A8
:1000B000550D0008550D0008550D0008550D000898
:1000C000550D0008550D0008550D0008550D000888
:1000D000550D0008550D0008550D000800000000E2
:1000E000550D0008550D0008550D000800000000D2
:1000F000000000000000000000000000550D000896
:1001000000000000550D0008550D0008550D0008B1
:1001100000000000000000000000000000000000DF
:10012000550D0008550D0008550D0008550D000827
:10013000550D000800000000000000000000000055
:10014000000000000000000000000000550D000845
:10015000550D0008550D0008550D0008550D0008F7
:10016000550D0008550D00080000000000000000BB
:10017000000000000000000000000000000000007F
:1001800000000000550D0008000000000000000005
:04019000550D000801
:1001940010B5054C237833B9044B13B10448AFF3BD
:1001A40000800123237010BD0C000020000000001B
:1001B400742B000808B5034B1BB103490348AFF384
:1001C400008008BD0000000010000020742B00080F
:1001D40053B94AB9002908BF00281CBF4FF0FF31AA
:1001E4004FF0FF3000F088B9ADF1080C6DE904CE92
:1001F40000F006F8DDF804E0DDE9022304B07047FE
:100204002DE9F047089D0F4604468C46002B48D143
:100214008A42164661D9B2FA82F34BB1C3F1200285
:1002240001FA03FC20FA02F29E4042EA0C0C9C40C4
:100234004FEA164EB7B2BCFBFEF1220C0EFB11CCFA
:1002440042EA0C4201FB07F0904209D9B21801F1CD
:10025400FF3C80F0EE80904240F2EB800239324461
:10026400121AA4B2B2FBFEF00EFB102244EA0244BE
:1002740000FB07F7A74209D9341900F1FF3280F0D7
:10028400DA80A74240F2D7803444023840EA014081
:10029400E41B00211DB1DC400023C5E90043BDE897
:1002A400F0878B4206D90DB1C5E90001002108464B
:1002B400BDE8F087B3FA83F1002948D1BB4202D3E9
:1002C400824200F20781841A67EB030201209446FC
:1002D400002DE4D0C5E9004CE1E7002A00F092804B
:1002E400B2FA82F3002B40F0A8808A1A4FEA164E25
:1002F4001FFA86FC0121200CB2FBFEF70EFB17222D
:1003040040EA02420CFB07F0904207D9B21807F109
:10031400FF3802D2904200F2E2804746121AA4B299
:10032400B2FBFEF00EFB102244EA02440CFB00FC7C
:10033400A44507D9341900F1FF3202D2A44500F2D2
:10034400CB801046A4EB0C0440EA0740A2E7C1F1BD
:1003540020068B4022FA06FC4CEA030C07FA01F44F
:1003640020FA06F3F7404FEA1C49234300FA01F848
:100374001FFA8CFEB7FBF9F01C0C09FB107744EA5A
:10038400074400FB0EF7A74202FA01F20AD91CEB5C
:10039400040400F1FF3A80F09B80A74240F2988069
:1003A40002386444E41B9FB2B4FBF9F309FB134421
:1003B40047EA044403FB0EFEA64509D91CEB0404DA
:1003C40003F1FF3780F08280A6457FD9023B644465
:1003D40043EA0040A4EB0E04A0FB02E7BC427346D0
:1003E400B94663D360D05DB1B8EB030264EB090492
:1003F40004FA06F622FA01F31E43CC40C5E9006470
:1004040000214CE76208480842EAC1710B0C43EA38
:1004140000438AB242EA0342B3FBF6F1E407B4466E
:100424003746B6461F23B0FBF6F0D21B41EA004123
:1004340061E7614614E7104628E7C3F1200120FA7A
:1004440001F29E4027FA01F19F403A434FEA164ECB
:100454001FFA86FCB1FBFEF70EFB1710110C41EAE4
:10046400004107FB0CF8884504FA03F43AD97118E3
:1004740007F1FF3001D288451FD8A1EB0801B1FB79
:10048400FEF808FB0CF70EFB181192B242EA014287
:10049400BA422FD2B21808F1FF31C6D2BA42C4D23E
:1004A400A8F102013244C0E7F0459CD2BEEB02033E
:1004B40067EB0C070138B94695E7A6EB08084144F9
:1004C400B81EB1FBFEF808FB0CF7DCE73B467FE700
:1004D400504667E70846FBE63444023832E7023FF9
:1004E40032441BE7A1EB08013846B1FBFEF808FBD8
:1004F4000CF7C8E7414698E7704700BF80B588B05D
:1005040000AF07F10C0300221A605A609A60DA60A7
:100514001A610023BB602E4B1B6B2D4A43F004036E
:1005240013632B4B1B6B03F00403BB60BB680023FA
:100534007B60274B1B6B264A43F001031363244B58
:100544001B6B03F001037B607B6800233B60204B43
:100554001B6B1F4A43F0020313631D4B1B6B03F019
:1005640002033B603B6800224FF40051194800F03D
:10057400F1FE00224FF48071174800F0EBFE0122D7
:100584004FF40071144800F0E5FE4FF40053FB6093
:1005940001233B6100237B610023BB6107F10C0352
:1005A40019460C4800F052FD4FF44073FB600123E0
:1005B4003B6100237B610023BB6107F10C031946F7
:1005C400054800F043FD00BF2037BD4680BD00BF95
:1005D40000380240000802400004024080B500AF29
:1005E400124B134A1A60114B124A5A600F4B0022E5
:1005F4009A600E4B0022DA600C4B4FF480421A6171
:100604000A4B00225A61094B00229A61074B0022CF
:10061400DA61064B00221A62044800F0B5FE034674
:10062400002B01D000F00CF900BF80BD2800002091
:1006340000540040A086010080B58AB000AF786005
:1006440007F1140300221A605A609A60DA601A6192
:100654007B681B68194A93422BD100233B61184BDA
:100664001B6B174A43F002031363154B1B6B03F018
:1006740002033B613B69C0237B611223BB610023FE
:10068400FB6103233B6204237B6207F114031946D5
:100694000C4800F0DBFC0023FB60094B1B6C084A90
:1006A40043F400131364064B1B6C03F40013FB6048
:1006B400FB6800BF2837BD4680BD00BF0054004022
:1006C400003802400004024080B500AF00F042FB55
:1006D40000F04CF8FFF712FFFFF780FF00F09EFADE
:1006E40001224FF480711A4800F034FE322000F0E9
:1006F40065F901220021174800F0A8F8032202211D
:10070400154800F0A3F805220421144800F09EF8CF
:1007140007220621124800F099F80C220B211148F7
:1007240000F094F80E220D210F4800F08FF86FF0BE
:1007340063010D4800F09FF8642000F07DFB0A4837
:1007440000F0DFF8084800F0EEF800BFEFE700BF64
:100754000004024088000020840000208000002063
:100764007C000020900000208C00002080B594B014
:1007740000AF07F1200330220021184602F0CCF923
:1007840007F10C0300221A605A609A60DA601A6159
:100794000023BB60284B1B6C274A43F0805313642F
:1007A400254B1B6C03F08053BB60BB6800237B604C
:1007B400224B1B6823F44043204A43F40043136054
:1007C4001E4B1B6803F440437B607B6802233B623F
:1007D4000123FB6210233B630223BB630023FB63FF
:1007E40008233B6454237B640223BB640423FB641B
:1007F40007F12003184601F075FA0346002B01D0D7
:1008040000F01EF80F23FB6002233B6100237B6191
:100814004FF48053BB610023FB6107F10C030221F9
:10082400184601F0D7FC0346002B01D000F008F86D
:1008340000BF5037BD4680BD003802400070004004
:1008440080B400AF72B600BF00BFFDE780B582B0D0
:1008540000AF78600B46FB701346BB707B68FA7878
:100864001A707B68BA785A70786800F05CF800BF38
:100874000837BD4680BD80B584B000AF78600B46B4
:100884007B80B7F90230642B01DD64237B80B7F9E8
:10089400023013F1640F02DA4FF69C737B80B7F9D0
:1008A4000230002BB8BF5B429BB2FB73B7F9023036
:1008B400002B0DDD7B681B78FA7B1146184600F08F
:1008C400DBF87B685B780021184600F0D5F814E06B
:1008D400B7F90230002B0DDA7B681B78002118462B
:1008E40000F0CAF87B685B78FA7B1146184600F082
:1008F400C3F802E0786800F016F800BF1037BD4670
:1009040080BD80B582B000AF78607B681B781846E4
:1009140000F0E2F87B685B78184600F0DDF800BF71
:100924000837BD4680BD80B582B000AF78607B6873
:100934001B78184600F0ECF87B685B78184600F0EA
:10094400E7F800BF0837BD4680BD000080B586B01B
:1009540004AF03460A46FB711346BB71FB799AB296
:100964006423029301230193BB1D0093012380217F
:10097400034800F04DFE00BF0837BD4680BD00BFF0
:100984002800002080B586B004AF03463960FB71AF
:100994001346BB71FB799AB2BB799BB26421029175
:1009A40001933B68009301238021034800F030FE4B
:1009B40000BF0837BD4680BD2800002080B584B044
:1009C40000AF0346FB8010210020FFF7BFFF0F4B51
:1009D400FB60FB881B03FA68B2FBF3F3013BBB60CB
:1009E400BB68DBB21946FE20FFF7B0FF21210020CF
:1009F400FFF7ACFF04210120FFF7A8FF012000F05E
:100A04001BFA00BF1037BD4680BD00BF40787D0192
:100A140080B584B000AF0346FB710B46BB80134620
:100A24007B80FB790F2B22D8FB799B00DBB206334A
:100A3400FB73BB88DBB23B72BB881B0A9BB2DBB285
:100A440003F00F03DBB27B727B88DBB2BB727B8863
:100A54001B0A9BB2DBB203F00F03DBB2FB7207F19C
:100A64000801FB7B04221846FFF78CFF00E000BF5F
:100A74001037BD4680BD000080B584B000AF03468A
:100A84000A46FB711346BB71BB79632B04D9FB790E
:100A9400184600F021F818E0BB79002B04D1FB794B
:100AA400184600F035F810E0BA7913461B039B1A78
:100AB400084A82FB03125211DB17D31AFB81FA890D
:100AC400FB7900211846FFF7A3FF00BF1037BD468E
:100AD40080BD00BF1F85EB5180B584B000AF0346D5
:100AE400FB71FB790F2B0FD8FB799B00DBB206332C
:100AF400FB734FF48053BB6007F10801FB7B0422B6
:100B04001846FFF73FFF00E000BF1037BD4680BD29
:100B140080B584B000AF0346FB71FB790F2B0FD86F
:100B2400FB799B00DBB20633FB734FF08053BB6051
:100B340007F10801FB7B04221846FFF723FF00E0BE
:100B440000BF1037BD4680BD80B483B000AF002322
:100B54007B60104B5B6C0F4A43F4804353640D4B32
:100B64005B6C03F480437B607B6800233B60094B30
:100B74001B6C084A43F080531364064B1B6C03F050
:100B840080533B603B6800BF0C37BD465DF8047B77
:100B9400704700BF0038024080B400AF00BFFDE7DB
:100BA40080B400AF00BFFDE780B400AF00BFFDE735
:100BB40080B400AF00BFFDE780B400AF00BFFDE725
:100BC40080B400AF00BFBD465DF8047B704780B4BD
:100BD40000AF00BFBD465DF8047B704780B400AF32
:100BE40000BFBD465DF8047B704780B500AF00F0E0
:100BF40003F900BF80BD000080B400AF064BD3F8FA
:100C04008830054A43F47003C2F8883000BFBD46FB
:100C14005DF8047B704700BF00ED00E080B500AFD5
:100C2400114B124A1A60104B4FF416525A600E4B75
:100C340000229A600C4B0022DA600B4B00221A61EE
:100C4400094B0C225A61084B00229A61064B002280
:100C5400DA61054801F09CFC0346002B01D0FFF744
:100C6400EFFD00BF80BD00BF9400002000100140D4
:100C740080B58AB000AF786007F1140300221A60CF
:100C84005A609A60DA601A617B681B68194A934259
:100C94002CD100233B61184B5B6C174A43F01003C3
:100CA4005364154B5B6C03F010033B613B690023F9
:100CB400FB60114B1B6B104A43F0010313630E4B93
:100CC4001B6B03F00103FB60FB684FF4C0637B61A3
:100CD4000223BB610023FB6103233B6207237B6286
:100CE40007F114031946054800F0B0F900BF28378E
:100CF400BD4680BD001001400038024000000240A3
:100D0400DFF834D0FFF778FF0C480D490D4A002373
:100D140002E0D458C4500433C4188C42F9D30A4AAC
:100D24000A4C002301E013600432A242FBD301F019
:100D3400FBFEFFF7C9FC7047000001200000002003
:100D44000C000020B42B00080C000020E000002060
:100D5400FEE7000080B500AF0E4B1B680D4A43F45C
:100D6400007313600B4B1B680A4A43F480631360DF
:100D7400084B1B68074A43F480731360032000F098
:100D840031F90F2000F008F8FFF7DEFE00231846C3
:100D940080BD00BF003C024080B582B000AF7860E7
:100DA400124B1A68124B1B7819464FF47A73B3FB33
:100DB400F1F3B2FBF3F3184600F03BF90346002BC2
:100DC40001D001230EE07B680F2B0AD8002279683A
:100DD4004FF0FF3000F011F9064A7B6813600023DE
:100DE40000E0012318460837BD4680BD00000020FE
:100DF400080000200400002080B400AF064B1B78DC
:100E04001A46064B1B681344044A136000BFBD46D0
:100E14005DF8047B704700BF08000020DC00002060
:100E240080B400AF034B1B681846BD465DF8047BD5
:100E3400704700BFDC00002080B584B000AF78604C
:100E4400FFF7EEFFB8607B68FB60FB68B3F1FF3F20
:100E540005D00A4B1B781A46FB681344FB6000BF9D
:100E6400FFF7DEFF0246BB68D31AFA689A42F7D846
:100E740000BF00BF1037BD4680BD00BF0800002082
:100E840080B485B000AF78607B6803F00703FB6033
:100E94000C4BDB68BB60BA684FF6FF031340BB60C2
:100EA400FB681A02BB68134343F0BF6343F4003387
:100EB400BB60044ABB68D36000BF1437BD465DF80D
:100EC400047B704700ED00E080B400AF044BDB68A6
:100ED4001B0A03F007031846BD465DF8047B704700
:100EE40000ED00E080B483B000AF03463960FB71CD
:100EF40097F90730002B0ADB3B68DAB20C4997F903
:100F040007301201D2B20B4483F800230AE03B6895
:100F1400DAB20849FB7903F00F03043B1201D2B2A1
:100F24000B441A7600BF0C37BD465DF8047B70474E
:100F340000E100E000ED00E080B489B000AFF860AB
:100F4400B9607A60FB6803F00703FB61FB69C3F1D6
:100F54000703042B28BF0423BB61FB690433062B5E
:100F640002D9FB69033B00E000237B614FF0FF32B1
:100F7400BB6902FA03F3DA43BB681A407B699A40FF
:100F84004FF0FF317B6901FA03F3D9437B680B40CF
:100F9400134318462437BD465DF8047B70470000B0
:100FA40080B582B000AF78607B68013BB3F1807F8D
:100FB40001D301230FE00A4A7B68013B53600F21F0
:100FC4004FF0FF30FFF78EFF054B00229A60044B71
:100FD40007221A60002318460837BD4680BD00BFAB
:100FE40010E000E080B582B000AF78607868FFF769
:100FF40047FF00BF0837BD4680BD80B586B000AF4F
:101004000346B9607A60FB7300237B61FFF75CFFE2
:1010140078617A68B9687869FFF78EFF024697F9B4
:101024000F3011461846FFF75DFF00BF1837BD4665
:1010340080BD80B582B000AF78607868FFF7B0FFFC
:10104400034618460837BD4680BD000080B489B009
:1010540000AF7860396000237B6100233B6100238B
:10106400BB610023FB6159E10122FB6902FA03F32E
:101074007B613B681B687A6913403B613A697B6911
:101084009A4240F048813B685B6803F00303012BFC
:1010940005D03B685B6803F00303022B30D17B6807
:1010A4009B68BB61FB695B00032202FA03F3DB4329
:1010B400BA691340BB613B68DA68FB695B0002FAFA
:1010C40003F3BA691343BB617B68BA699A607B68AE
:1010D4005B68BB610122FB6902FA03F3DB43BA6973
:1010E4001340BB613B685B681B0903F00102FB69A9
:1010F40002FA03F3BA691343BB617B68BA695A60A5
:101104003B685B6803F00303032B17D07B68DB6841
:10111400BB61FB695B00032202FA03F3DB43BA6998
:101124001340BB613B689A68FB695B0002FA03F3F6
:10113400BA691343BB617B68BA69DA603B685B6870
:1011440003F00303022B23D1FB69DA087B6808321E
:1011540053F82230BB61FB6903F007039B000F22A5
:1011640002FA03F3DB43BA691340BB613B681A69B3
:10117400FB6903F007039B0002FA03F3BA69134304
:10118400BB61FB69DA087B680832B96943F822104D
:101194007B681B68BB61FB695B00032202FA03F3F3
:1011A400DB43BA691340BB613B685B6803F003022D
:1011B400FB695B0002FA03F3BA691343BB617B6802
:1011C400BA691A603B685B6803F44033002B00F093
:1011D400A2800023FB60574B5B6C564A43F4804368
:1011E4005364544B5B6C03F48043FB60FB68524ACA
:1011F400FB699B08023352F82330BB61FB6903F09F
:1012040003039B000F2202FA03F3DB43BA69134082
:10121400BB617B68494A934219D07B68484A934230
:1012240013D07B68474A93420DD07B68464A934269
:1012340007D07B68454A934201D1042308E0072381
:1012440006E0032304E0022302E0012300E000237C
:10125400FA6902F0030292009340BA691343BB6136
:101264003549FB699B080233BA6941F82320384B9E
:101274009B68BB613B69DB43BA691340BB613B6854
:101284005B6803F48013002B03D0BA693B691343F2
:10129400BB612F4ABB6993602D4BDB68BB613B6923
:1012A400DB43BA691340BB613B685B6803F400131A
:1012B400002B03D0BA693B691343BB61244ABB6961
:1012C400D360234B5B68BB613B69DB43BA69134062
:1012D400BB613B685B6803F40033002B03D0BA693D
:1012E4003B691343BB611A4ABB695360184B1B68C3
:1012F400BB613B69DB43BA691340BB613B685B6814
:1013040003F48033002B03D0BA693B691343BB61F8
:101314000F4ABB691360FB690133FB61FB690F2B47
:101324007FF6A2AE00BF00BF2437BD465DF8047B44
:10133400704700BF003802400038014000000240FE
:101344000004024000080240000C02400010024069
:10135400003C014080B483B000AF78600B467B80D2
:1013640013467B707B78002B03D07A887B689A6164
:1013740003E07B881A047B689A6100BF0C37BD4682
:101384005DF8047B7047000080B584B000AF7860DE
:101394007B68002B01D101232BE17B6893F83D305E
:1013A400DBB2002B06D17B68002283F83C207868EE
:1013B400FFF742F97B68242283F83D207B681B6891
:1013C4001A687B681B6822F001021A607B681B683C
:1013D4001A687B681B6842F400421A607B681B68C9
:1013E4001A687B681B6822F400421A6001F0A8F8AE
:1013F400F8607B685B68814A934207D8FB68804A3F
:10140400934294BF01230023DBB206E0FB687D4ACC
:10141400934294BF01230023DBB2002B01D00123AC
:10142400E7E0FB68784AA2FB03239B0CBB607B6864
:101434001B685B6823F03F017B681B68BA680A433A
:101444005A607B681B681B6A23F03F017B685B68FA
:101454006A4A934202D8BB68013309E0BB684FF47F
:10146400967202FB03F3694AA2FB03239B0901332F
:101474007A6812680B4313627B681B68DB6923F488
:101484004F4222F0FF027B685B685C498B4219D8AB
:10149400FB68591E7B685B685B00B1FBF3F3591C66
:1014A40040F6FC730B40002B0AD0FB68591E7B6886
:1014B4005B685B00B1FBF3F30133C3F30B0351E04F
:1014C40004234FE07B689B68002B11D1FB68581EF6
:1014D4007B6859680B465B000B44B0FBF3F30133A4
:1014E400C3F30B03002B0CBF01230023DBB212E078
:1014F400FB68581E7B6859680B469B000B44990097
:101504000B44B0FBF3F30133C3F30B03002B0CBF09
:1015140001230023DBB2002B01D0012322E07B68EE
:101524009B68002B0ED1FB68581E7B6859680B46DC
:101534005B000B44B0FBF3F30133C3F30B0343F43D
:1015440000430FE0FB68581E7B6859680B469B00FC
:101554000B4499000B44B0FBF3F30133C3F30B03C7
:1015640043F44043796809681343CB617B681B6883
:101574001B6823F0C0017B68DA697B681B6A1A4325
:101584007B681B680A431A607B681B689B6823F4AA
:10159400034323F0FF037A6811697A68D268114320
:1015A4007A6812680B4393607B681B68DB6823F0DE
:1015B400FF017B685A697B689B691A437B681B68D7
:1015C4000A43DA607B681B681A687B681B6842F010
:1015D40001021A607B6800221A647B68202283F867
:1015E4003D207B6800221A637B68002283F83E203A
:1015F400002318461037BD4680BD00BFA0860100F9
:101604007F841E00FF083D0083DE1B43D34D621020
:1016140080B588B002AFF860084611461A46034602
:101624007B810B463B811346FB80FFF7F9FB786116
:10163400FB6893F83D30DBB2202B40F0D9807B6906
:101644000093192301226D49F86800F071F90346EB
:10165400002B01D00223CCE0FB6893F83C30012B33
:1016640001D10223C5E0FB68012283F83C20FB681A
:101674001B681B6803F00103012B07D0FB681B6880
:101684001A68FB681B6842F001021A60FB681B6859
:101694001A68FB681B6822F400621A60FB68212246
:1016A40083F83D20FB68402283F83E20FB6800223B
:1016B4001A64FB683A6A5A62FB68BA8C5A85FB68FA
:1016C4005B8D9AB2FB681A85FB684D4ADA62F8882A
:1016D4003A8979897B690193BB6A00930346F86868
:1016E40000F090F80346002B52D0012381E07A6980
:1016F400B96AF86800F036FA0346002B0DD0FB688F
:101704001B6C042B07D1FB681B681A68FB681B68F9
:1017140042F400721A6001236BE0FB685B6A1A787A
:10172400FB681B681A61FB685B6A5A1CFB685A6297
:10173400FB681B8D013B9AB2FB681A85FB685B8DC5
:101744009BB2013B9AB2FB685A85FB681B685B69D4
:1017540003F00403042B1BD1FB681B8D002B17D053
:10176400FB685B6A1A78FB681B681A61FB685B6A32
:101774005A1CFB685A62FB681B8D013B9AB2FB68DA
:101784001A85FB685B8D9BB2013B9AB2FB685A8554
:10179400FB681B8D002BAAD17A69B96AF86800F03E
:1017A40029FA0346002B0DD0FB681B6C042B07D1D0
:1017B400FB681B681A68FB681B6842F400721A60B5
:1017C400012316E0FB681B681A68FB681B6842F477
:1017D40000721A60FB68202283F83D20FB68002217
:1017E40083F83E20FB68002283F83C20002300E0BD
:1017F400022318461837BD4680BD00BF0200100002
:101804000000FFFF80B588B002AFF86008461146BB
:101814001A4603467B810B463B811346FB80FB68DB
:101824001B681A68FB681B6842F480721A607B6A42
:1018340000933B6A00224FF00111F86800F078F839
:101844000346002B0DD0FB681B681B6803F48073F0
:10185400B3F5807F03D1FB684FF400721A6403234D
:101864005FE07B89DBB21A46FB681B6802F0FE026C
:101874001A617B6A3A6A2D49F86800F0D3F8034686
:10188400002B01D001234CE000237B61FB681B6823
:101894005B697B61FB681B689B697B617B697A6A16
:1018A400396AF86800F05EF90346002B0DD0FB6836
:1018B4001B6C042B07D1FB681B681A68FB681B6848
:1018C40042F400721A6001232BE0FB88012B05D13E
:1018D4003B89DAB2FB681B681A6121E03B891B0A69
:1018E4009BB2DAB2FB681B681A617A6A396AF868D3
:1018F40000F038F90346002B0DD0FB681B6C042B59
:1019040007D1FB681B681A68FB681B6842F4007205
:101914001A60012305E03B89DAB2FB681B681A618F
:10192400002318461837BD4680BD00BF02000100E1
:1019340080B584B000AFF860B9603B601346FB71BA
:1019440048E03B68B3F1FF3F44D0FFF769FA024631
:10195400BB69D31A3A689A4202D33B68002B39D147
:10196400BB681B0CDBB2012B0DD1FB681B685B69E8
:10197400DA43BB6813409BB2002B0CBF0123002346
:10198400DBB21A460CE0FB681B689B69DA43BB6850
:1019940013409BB2002B0CBF01230023DBB21A4679
:1019A400FB799A4216D1FB6800221A63FB68202255
:1019B40083F83D20FB68002283F83E20FB681B6C03
:1019C40043F02002FB681A64FB68002283F83C2081
:1019D400012323E0BB681B0CDBB2012B0DD1FB6898
:1019E4001B685B69DA43BB6813409BB2002B0CBFD6
:1019F40001230023DBB21A460CE0FB681B689B69D9
:101A0400DA43BB6813409BB2002B0CBF01230023B5
:101A1400DBB21A46FB799A4293D00023184610375A
:101A2400BD4680BD80B584B000AFF860B9607A600F
:101A34003B6071E0FB681B685B6903F48063B3F58A
:101A4400806F23D1FB681B681A68FB681B6842F42B
:101A540000721A60FB681B686FF480625A61FB684D
:101A640000221A63FB68202283F83D20FB680022D1
:101A740083F83E20FB681B6C43F00402FB681A6485
:101A8400FB68002283F83C20012367E07B68B3F104
:101A9400FF3F41D0FFF7C4F902463B68D31A7A6886
:101AA4009A4202D37B68002B36D1BB681B0CDBB295
:101AB400012B0CD1FB681B685B69DA43BB681340DC
:101AC4009BB2002B14BF01230023DBB20BE0FB68A5
:101AD4001B689B69DA43BB6813409BB2002B14BF9D
:101AE40001230023DBB2002B16D0FB6800221A630B
:101AF400FB68202283F83D20FB68002283F83E2007
:101B0400FB681B6C43F02002FB681A64FB6800222C
:101B140083F83C20012321E0BB681B0CDBB2012BC2
:101B24000CD1FB681B685B69DA43BB6813409BB24A
:101B3400002B14BF01230023DBB20BE0FB681B68FE
:101B44009B69DA43BB6813409BB2002B14BF01238B
:101B54000023DBB2002B7FF46DAF0023184610374F
:101B6400BD4680BD80B584B000AFF860B9607A60CE
:101B740034E0F86800F086F80346002B01D0012316
:101B840034E0BB68B3F1FF3F28D0FFF749F90246C0
:101B94007B68D31ABA689A4202D3BB68002B1DD162
:101BA400FB681B685B6903F08003802B16D0FB681D
:101BB40000221A63FB68202283F83D20FB68002280
:101BC40083F83E20FB681B6C43F02002FB681A6418
:101BD400FB68002283F83C20012307E0FB681B68B4
:101BE4005B6903F08003802BC3D1002318461037B0
:101BF400BD4680BD80B584B000AFF860B9607A603E
:101C040034E0F86800F03EF80346002B01D00123CD
:101C140034E0BB68B3F1FF3F28D0FFF701F9024677
:101C24007B68D31ABA689A4202D3BB68002B1DD1D1
:101C3400FB681B685B6903F00403042B16D0FB6884
:101C440000221A63FB68202283F83D20FB680022EF
:101C540083F83E20FB681B6C43F02002FB681A6487
:101C6400FB68002283F83C20012307E0FB681B6823
:101C74005B6903F00403042BC3D100231846103717
:101C8400BD4680BD80B483B000AF78607B681B68BC
:101C94005B6903F48063B3F5806F1BD17B681B68B9
:101CA4006FF480625A617B6800221A637B68202289
:101CB40083F83D207B68002283F83E207B681B6C00
:101CC40043F004027B681A647B68002283F83C209A
:101CD400012300E0002318460C37BD465DF8047B61
:101CE4007047000080B586B000AF78607B68002B39
:101CF40001D1012367E27B681B6803F00103002B19
:101D040075D0884B9B6803F00C03042B0CD0854BD7
:101D14009B6803F00C03082B12D1824B5B6803F41D
:101D24008003B3F5800F0BD17E4B1B6803F40033A3
:101D3400002B5BD07B685B68002B57D1012342E208
:101D44007B685B68B3F5803F06D1764B1B68754AA8
:101D540043F4803313601DE07B685B68B3F5A02F08
:101D64000CD1704B1B686F4A43F4802313606D4B96
:101D74001B686C4A43F4803313600BE0694B1B68A7
:101D8400684A23F480331360664B1B68654A23F466
:101D9400802313607B685B68002B13D0FFF740F847
:101DA400386108E0FFF73CF802463B69D31A642B1C
:101DB40001D9032307E25B4B1B6803F40033002BB8
:101DC400F0D014E0FFF72CF8386108E0FFF728F8AA
:101DD40002463B69D31A642B01D90323F3E1514B27
:101DE4001B6803F40033002BF0D100E000BF7B68D4
:101DF4001B6803F00203002B63D04A4B9B6803F07B
:101E04000C03002B0BD0474B9B6803F00C03082BEF
:101E14001CD1444B5B6803F48003002B16D1414B67
:101E24001B6803F00203002B05D07B68DB68012BE1
:101E340001D00123C7E13B4B1B6823F0F8027B6808
:101E44001B69DB00374913430B603AE07B68DB68AE
:101E5400002B20D0344B01221A60FEF7E1FF3861D9
:101E640008E0FEF7DDFF02463B69D31A022B01D9D5
:101E74000323A8E12B4B1B6803F00203002BF0D0D3
:101E8400284B1B6823F0F8027B681B69DB0025499B
:101E940013430B6015E0244B00221A60FEF7C0FFC9
:101EA400386108E0FEF7BCFF02463B69D31A022BF7
:101EB40001D9032387E11B4B1B6803F00203002BAA
:101EC400F0D17B681B6803F00803002B36D07B68D5
:101ED4005B69002B16D0154B01221A60FEF7A0FF98
:101EE400386108E0FEF79CFF02463B69D31A022BD7
:101EF40001D9032367E10B4B5B6F03F00203002B53
:101F0400F0D01BE0094B00221A60FEF789FF38610C
:101F14000EE0FEF785FF02463B69D31A022B07D970
:101F2400032350E10038024000004742800E47423C
:101F3400884B5B6F03F00203002BEAD17B681B68BC
:101F440003F00403002B00F097800023FB75814B02
:101F54001B6C03F08053002B0FD10023BB607D4B1F
:101F64001B6C7C4A43F0805313647A4B1B6C03F064
:101F74008053BB60BB680123FB75774B1B6803F47C
:101F84008073002B18D1744B1B68734A43F480731D
:101F94001360FEF745FF386108E0FEF741FF024693
:101FA4003B69D31A022B01D903230CE16A4B1B684A
:101FB40003F48073002BF0D07B689B68012B06D15F
:101FC400644B1B6F634A43F0010313671CE07B6897
:101FD4009B68052B0CD15F4B1B6F5E4A43F00403D7
:101FE40013675C4B1B6F5B4A43F0010313670BE001
:101FF400584B1B6F574A23F001031367554B1B6F54
:10200400544A23F0040313677B689B68002B15D0A4
:10201400FEF706FF38610AE0FEF702FF02463B695D
:10202400D31A41F28832934201D90323CBE0494BBE
:102034001B6F03F00203002BEED014E0FEF7F0FE5A
:1020440038610AE0FEF7ECFE02463B69D31A41F21E
:102054008832934201D90323B5E03E4B1B6F03F052
:102064000203002BEED1FB7D012B05D1394B1B6CF8
:10207400384A23F0805313647B689B69002B00F07B
:10208400A180344B9B6803F00C03082B5CD07B6865
:102094009B69022B41D1314B00221A60FEF7C0FE2E
:1020A400386108E0FEF7BCFE02463B69D31A022BF6
:1020B40001D9032387E0274B1B6803F00073002B2F
:1020C400F0D17B68DA697B681B6A1A437B685B6AB8
:1020D4009B011A437B689B6A5B08013B1B041A4300
:1020E4007B68DB6A1B061B4913434B601B4B0122B5
:1020F4001A60FEF795FE386108E0FEF791FE02468D
:102104003B69D31A022B01D903235CE0114B1B68F2
:1021140003F00073002BF0D054E0104B00221A603F
:10212400FEF77EFE386108E0FEF77AFE02463B6960
:10213400D31A022B01D9032345E0064B1B6803F095
:102144000073002BF0D13DE07B689B69012B07D124
:10215400012338E00038024000700040600047422C
:102164001B4B5B68FB607B689B69012B28D0FB6879
:1021740003F480027B68DB699A4221D1FB6803F097
:102184003F027B681B6A9A421AD1FA6847F6C07309
:1021940013407A68526A9201934211D1FB6803F4A6
:1021A40040327B689B6A5B08013B1B049A4207D15F
:1021B400FB6803F070627B68DB6A1B069A4201D0FD
:1021C400012300E0002318461837BD4680BD00BF38
:1021D4000038024080B584B000AF786039607B6815
:1021E400002B01D10123CCE0684B1B6803F00703EB
:1021F4003A689A420CD9654B3A68D2B21A70634B6A
:102204001B6803F007033A689A4201D00123B8E03F
:102214007B681B6803F00203002B20D07B681B68DB
:1022240003F00403002B05D0594B9B68584A43F430
:10223400E05393607B681B6803F00803002B05D010
:10224400534B9B68524A43F460439360504B9B68E2
:1022540023F0F0027B689B684D4913438B607B68D5
:102264001B6803F00103002B44D07B685B68012BDF
:1022740007D1474B1B6803F40033002B19D101230A
:102284007FE07B685B68022B03D07B685B68032B71
:1022940007D13F4B1B6803F00073002B09D10123C6
:1022A4006FE03B4B1B6803F00203002B01D10123B9
:1022B40067E0374B9B6823F003027B685B68344913
:1022C40013438B60FEF7ACFDF8600AE0FEF7A8FD4F
:1022D4000246FB68D31A41F28832934201D90323A0
:1022E4004FE02B4B9B6803F00C027B685B689B0000
:1022F4009A42EBD1254B1B6803F007033A689A42D4
:102304000CD2224B3A68D2B21A70204B1B6803F0ED
:1023140007033A689A4201D0012332E07B681B68C4
:1023240003F00403002B08D0194B9B6823F4E052FC
:102334007B68DB68164913438B607B681B6803F07A
:102344000803002B09D0124B9B6823F460427B687E
:102354001B69DB000E4913438B6000F021F8024631
:102364000B4B9B681B0903F00F030A49CB5C22FA51
:1023740003F3094A1360094B1B681846FEF70CFD6A
:10238400002318461037BD4680BD00BF003C024004
:10239400003802408C2B00080000002004000020BC
:1023A4002DE9B04F90B000AF00237B630023FB63A3
:1023B40000233B630023BB63584B9B6803F00C036F
:1023C400082B0DD0082B00F2A080002B02D0042B88
:1023D40003D09AE0524BBB639AE0524BBB6397E045
:1023E4004E4B5B6803F03F037B634C4B5B6803F429
:1023F4008003002B27D0494B5B689B0900223B627A
:102404007A623B6AC3F308000021464B03FB01F2E6
:10241400002300FB03F31344424AA0FB0221F962A8
:10242400BA62FA6A1344FB627B6B0022BB61FA61F5
:10243400D7E90623D7E90A01FDF7CAFE02460B468F
:102444001346FB6353E0354B5B689B0900223B61F9
:102454007A613B69C3F3080A4FF0000B52465B46AE
:102464004FF000004FF00001590141EAD2615001E0
:1024740002460B46B2EB0A0863EB0B094FF000026D
:102484004FF000034FEA891343EA98634FEA881236
:10249400B2EB080463EB09054FF000024FF00003B0
:1024A400EB0043EA5473E20014461D4614EB0A039E
:1024B4003B6045EB0B037B604FF000024FF00003E1
:1024C400D7E9004529468B02214643EA9153214628
:1024D4008A02104619467B6B0022BB60FA60D7E97A
:1024E4000223FDF775FE02460B461346FB630B4BB6
:1024F4005B681B0C03F0030301335B003B63FA6B63
:102504003B6BB2FBF3F3BB6302E0054BBB6300BF61
:10251400BB6B18464037BD46BDE8B08F003802405B
:102524000024F40040787D0180B400AF034B1B68A5
:102534001846BD465DF8047B704700BF00000020CC
:1025440080B500AFFFF7F0FF0246054B9B689B0A7E
:1025540003F007030349CB5C22FA03F3184680BD5A
:10256400003802409C2B000880B500AFFFF7DCFF69
:102574000246054B9B685B0B03F007030349CB5CE6
:1025840022FA03F3184680BD003802409C2B000851
:1025940080B582B000AF78607B68002B01D1012345
:1025A40042E07B6893F84130DBB2002B06D17B68B4
:1025B400002283F840207868FEF75AFB7B682422C7
:1025C40083F841207B681B68DA687B681B6822F407
:1025D4000052DA60786800F02BF87B681B681A698F
:1025E4007B681B6822F490421A617B681B685A69F5
:1025F4007B681B6822F02A025A617B681B68DA68D0
:102604007B681B6842F40052DA607B6800225A64DB
:102614007B68202283F841207B68202283F84220B3
:102624007B6800225A63002318460837BD4680BDE4
:102634002DE9B04FC0B000AFC7F8F400D7F8F430BC
:102644001B681B6923F44050D7F8F430D968D7F8D5
:10265400F4301A6840EA01031361D7F8F4309A6839
:10266400D7F8F4301B691A43D7F8F4305B691A437E
:10267400D7F8F430DB691343C7F8F830D7F8F430EF
:102684001B68DB6823F4164121F00C01D7F8F43001
:102694001A68D7F8F8300B43D360D7F8F4301B68C6
:1026A4005B6923F44070D7F8F4309969D7F8F430B3
:1026B4001A6840EA01035361D7F8F4301A688F4B63
:1026C4009A4205D0D7F8F4301A688D4B9A4204D157
:1026D400FFF74AFFC7F8FC0003E0FFF731FFC7F834
:1026E400FC00D7F8F430DB69B3F5004F40F00C81FF
:1026F400D7F8FC300022C7F8E830C7F8EC20D7E957
:102704003A4522462B469118B9655B41FB65D7E9EA
:102714001623214612EB0108294643EB01094FF029
:1027240000024FF000034FEAC90343EA58734FEA2B
:10273400C80290469946234618EB0303C7F8E030D5
:102744002B4649EB0303C7F8E430D7F8F4305B6851
:102754000022C7F8D830C7F8DC20D7E936120B4678
:10276400DB183B65134642EB03037B65D7E914236F
:10277400D7E93801FDF72CFD02460B46614BA3FB5C
:1027840002235B091C01D7F8FC300022C7F8D030C3
:10279400C7F8D420D7E9348942464B469118B96426
:1027A4005B41FB64D7E91223414612EB010A494617
:1027B40043EB010B4FF000024FF000034FEACB0351
:1027C40043EA5A734FEACA0292469B4643461AEBBF
:1027D4000303C7F8C8304B464BEB0303C7F8CC30B0
:1027E400D7F8F4305B680022C7F8C030C7F8C420BB
:1027F400D7E930120B46DB183B64134642EB030364
:102804007B64D7E91023D7E93201FDF7E1FC0246E6
:102814000B4611463B4BA3FB01235B09642202FBDD
:1028240003F3CB1ADB0003F13202364BA3FB022382
:102834005B095B0003F4F8731C44D7F8FC300022F6
:10284400C7F8B830C7F8BC20D7E92E8942464B46B2
:102854009118B9635B41FB63D7E90E2341465118D4
:10286400396349464B417B634FF000024FF000034C
:10287400D7E90CAB5946CB00514643EA5173514654
:10288400CA0010461946034642469B18C7F8B030A2
:102894004B460A4642EB0303C7F8B430D7F8F4308A
:1028A4005B680022C7F8A830C7F8AC20D7E92A1221
:1028B4000B46DB18BB62134642EB0303FB62D7E90A
:1028C4000A23D7E92C01FDF783FC02460B460D4B86
:1028D400A3FB02135B09642101FB03F3D31ADB009E
:1028E4003233084AA2FB03235B0903F00702D7F83B
:1028F400F4301B6822449A6006E100BF00100140D6
:10290400001401401F85EB51D7F8FC300022C7F8B2
:10291400A030C7F8A420D7E9288942464B4691182D
:1029240039625B417B62D7E9082341465418494622
:1029340043EB01054FF000024FF00003EB0043EAC4
:102944005473E20014461D464346E318C7F8983012
:102954004B4645EB0303C7F89C30D7F8F4305B686B
:102964000022C7F89030C7F894204FF000024FF0CF
:102974000003D7E9244529468B00214643EA917395
:1029840021468A00D7E92601FDF722FC02460B46C0
:10299400604BA3FB02235B091C01D7F8FC30002227
:1029A400C7F88830C7F88C20D7E9228942464B46BD
:1029B4009118B9615B41FB61D7E90623414651187F
:1029C400396149464B417B614FF000024FF00003EF
:1029D400D7E904AB5946CB00514643EA51735146FB
:1029E400CA0010461946034642469B18C7F8803071
:1029F4004B460A4642EB0303C7F88430D7F8F43059
:102A04005B680022BB67FA674FF000024FF00003D7
:102A1400D7E91E8949468B00414643EA91734146F2
:102A24008A00D7E92001FDF7D3FB02460B46114685
:102A3400384BA3FB01235B09642202FB03F3CB1A8B
:102A44001B013233334AA2FB03235B0903F0F00377
:102A54001C44D7F8FC3000223B677A67D7E91C890D
:102A640042464B469118B9605B41FB60D7E90223AB
:102A740041465118396049464B417B604FF0000292
:102A84004FF00003D7E900AB5946CB00514643EA67
:102A940051735146CA0010461946034642469B18D4
:102AA400BB664B460A4642EB0303FB66D7F8F43099
:102AB4005B6800223B667A664FF000024FF0000329
:102AC400D7E9188949468B00414643EA9173414648
:102AD4008A00D7E91A01FDF77BFB02460B460D4B32
:102AE400A3FB02135B09642101FB03F3D31A1B014B
:102AF4003233084AA2FB03235B0903F00F02D7F821
:102B0400F4301B6822449A6000BF07F58077BD4605
:102B1400BDE8B08F1F85EB5102440346934200D1B8
:102B2400704703F8011BF9E770B50D4B0D4D5B1BA6
:102B34009C100026A64209D100F01AF80A4D0B4B4E
:102B44005B1B9C100026A64205D170BD55F8043BC2
:102B540098470136EEE755F8043B98470136F2E70B
:102B6400AC2B0008AC2B0008AC2B0008B02B0008E1
:102B7400F8B500BFF8BC08BC9E467047F8B500BF66
:082B8400F8BC08BC9E46704736
:102B8C000000000000000000010203040607080911
:082B9C00000000000102030427
:082BA40060D6FF7F0100000074
:042BAC00B901000863
:042BB0009501000883
:0C2BB4000024F4001000000001000000EC
:0400000508000D05DD
:00000001FF
