:020000040800F2
:1000000000000120E11000080D0F0008150F000886
:100010001D0F0008250F00082D0F0008000000002C
:10002000000000000000000000000000350F000884
:10003000430F000800000000510F00085F0F000888
:100040003111000831110008311100083111000888
:100050003111000831110008311100083111000878
:100060003111000831110008311100083111000868
:100070003111000831110008311100083111000858
:100080003111000831110008311100080000000092
:100090000000000000000000000000003111000816
:1000A0003111000831110008311100083111000828
:1000B0003111000831110008311100083111000818
:1000C0003111000831110008311100083111000808
:1000D0003111000831110008311100080000000042
:1000E0003111000831110008311100080000000032
:1000F00000000000000000000000000031110008B6
:100100000000000031110008311100083111000811
:1001100000000000000000000000000000000000DF
:1001200031110008311100083111000831110008A7
:100130003111000800000000000000000000000075
:100140000000000000000000000000003111000865
:100150003111000831110008311100083111000877
:1001600031110008311100080000000000000000FB
:10017000000000000000000000000000000000007F
:100180000000000031110008000000000000000025
:040190003111000821
:1001A00010B5054C237833B9044B13B10448AFF3B1
:1001B00000800123237010BD5C00002000000000BF
:1001C000A441000808B5034B1BB103490348AFF332
:1001D000008008BD0000000060000020A44100086D
:1001E00001F0FF01102A2BDB10F0070F08D010F8E8
:1001F000013B013A8B422DD010F0070F42B3F6D1EC
:10020000F0B441EA012141EA014122F007047FF004
:1002100000070023F0E80256083C85EA010586EA5B
:10022000010685FA47F5A3FA87F586FA47F6A5FA97
:1002300087F68EB9EED1F0BC01F0FF0102F00702A3
:1002400032B110F8013B013A83EA010313B1F8D14E
:100250000020704701387047002D06BF354603382F
:10026000073815F0010F07D1013015F4807F02BF68
:10027000013015F4C03F0130F0BC0138704700BFB9
:1002800081F0004102E000BF83F0004330B54FEA47
:1002900041044FEA430594EA050F08BF90EA020FB4
:1002A0001FBF54EA000C55EA020C7FEA645C7FEA47
:1002B000655C00F0E2804FEA5454D4EB5555B8BF6A
:1002C0006D420CDD2C4480EA020281EA030382EADB
:1002D000000083EA010180EA020281EA0303362D6D
:1002E00088BF30BD11F0004F4FEA01314FF4801C40
:1002F0004CEA113102D0404261EB410113F0004F52
:100300004FEA03334CEA133302D0524263EB430308
:1003100094EA050F00F0A780A4F10104D5F1200EA6
:100320000DDB02FA0EFC22FA05F2801841F1000101
:1003300003FA0EF2801843FA05F359410EE0A5F1D5
:1003400020050EF1200E012A03FA0EFC28BF4CF006
:10035000020C43FA05F3C01851EBE37101F00045BC
:1003600007D54FF0000EDCF1000C7EEB00006EEBC9
:100370000101B1F5801F1BD3B1F5001F0CD3490853
:100380005FEA30004FEA3C0C04F101044FEA4452AA
:1003900012F5800F80F09A80BCF1004F08BF5FEA31
:1003A000500C50F1000041EB045141EA050130BD11
:1003B0005FEA4C0C404141EB0101013C28BFB1F523
:1003C000801FE9D291F0000F04BF01460020B1FA6E
:1003D00081F308BF2033A3F10B03B3F120020CDA41
:1003E0000C3208DD02F1140CC2F10C0201FA0CF01F
:1003F00021FA02F10CE002F11402D8BFC2F1200C84
:1004000001FA02F120FA0CFCDCBF41EA0C01904039
:10041000E41AA2BF01EB0451294330BD6FEA040482
:100420001F3C1CDA0C340EDC04F11404C4F120026D
:1004300020FA04F001FA02F340EA030021FA04F37F
:1004400045EA030130BDC4F10C04C4F1200220FAD6
:1004500002F001FA04F340EA0300294630BD21FA14
:1004600004F0294630BD94F0000F83F4801306BFDA
:1004700081F480110134013D4EE77FEA645C18BFCE
:100480007FEA655C29D094EA050F08BF90EA020F65
:1004900005D054EA000C04BF1946104630BD91EA5D
:1004A000030F1EBF0021002030BD5FEA545C05D160
:1004B0004000494128BF41F0004130BD14F580049F
:1004C0003CBF01F5801130BD01F0004545F0FE4113
:1004D00041F470014FF0000030BD7FEA645C1ABF48
:1004E000194610467FEA655C1CBF0B46024650EA7F
:1004F000013406BF52EA033591EA030F41F40021AB
:1005000030BD00BF90F0000F04BF0021704730B530
:100510004FF4806404F132044FF000054FF0000105
:1005200050E700BF90F0000F04BF0021704730B5C6
:100530004FF4806404F1320410F0004548BF40429B
:100540004FF000013EE700BF42004FEAE2014FEAF0
:1005500031014FEA02701FBF12F07F4393F07F4FCB
:1005600081F06051704732F07F4208BF704793F0CE
:100570007F4F04BF41F40021704730B54FF46074E1
:1005800001F0004521F000411CE700BF50EA0102E4
:1005900008BF704730B54FF000050AE050EA01028D
:1005A00008BF704730B511F0004502D5404261EBFD
:1005B00041014FF4806404F132045FEA915C3FF43E
:1005C000D8AE4FF003025FEADC0C18BF03325FEADB
:1005D000DC0C18BF033202EBDC02C2F1200300FA8C
:1005E00003FC20FA02F001FA03FE40EA0E0021FAB1
:1005F00002F11444BDE600BF53B94AB9002908BF4F
:1006000000281CBF4FF0FF314FF0FF3000F088B9D9
:10061000ADF1080C6DE904CE00F006F8DDF804E059
:10062000DDE9022304B070472DE9F047089D0F462D
:1006300004468C46002B48D18A42164661D9B2FA4C
:1006400082F34BB1C3F1200201FA03FC20FA02F25B
:100650009E4042EA0C0C9C404FEA164EB7B2BCFBDF
:10066000FEF1220C0EFB11CC42EA0C4201FB07F01A
:10067000904209D9B21801F1FF3C80F0EE8090421F
:1006800040F2EB8002393244121AA4B2B2FBFEF0FF
:100690000EFB102244EA024400FB07F7A74209D9E7
:1006A000341900F1FF3280F0DA80A74240F2D7809F
:1006B0003444023840EA0140E41B00211DB1DC4013
:1006C0000023C5E90043BDE8F0878B4206D90DB190
:1006D000C5E9000100210846BDE8F087B3FA83F1BF
:1006E000002948D1BB4202D3824200F20781841A1A
:1006F00067EB030201209446002DE4D0C5E9004CCD
:10070000E1E7002A00F09280B2FA82F3002B40F079
:10071000A8808A1A4FEA164E1FFA86FC0121200C87
:10072000B2FBFEF70EFB172240EA02420CFB07F079
:10073000904207D9B21807F1FF3802D2904200F276
:10074000E2804746121AA4B2B2FBFEF00EFB102262
:1007500044EA02440CFB00FCA44507D9341900F11B
:10076000FF3202D2A44500F2CB801046A4EB0C0469
:1007700040EA0740A2E7C1F120068B4022FA06FCBE
:100780004CEA030C07FA01F420FA06F3F7404FEAAB
:100790001C49234300FA01F81FFA8CFEB7FBF9F05D
:1007A0001C0C09FB107744EA074400FB0EF7A74234
:1007B00002FA01F20AD91CEB040400F1FF3A80F0BE
:1007C0009B80A74240F2988002386444E41B9FB2A9
:1007D000B4FBF9F309FB134447EA044403FB0EFEA0
:1007E000A64509D91CEB040403F1FF3780F0828091
:1007F000A6457FD9023B644443EA0040A4EB0E04C3
:10080000A0FB02E7BC427346B94663D360D05DB13A
:10081000B8EB030264EB090404FA06F622FA01F3CA
:100820001E43CC40C5E9006400214CE7620848083B
:1008300042EAC1710B0C43EA00438AB242EA034226
:10084000B3FBF6F1E407B4463746B6461F23B0FBC8
:10085000F6F0D21B41EA004161E7614614E7104619
:1008600028E7C3F1200120FA01F29E4027FA01F1A6
:100870009F403A434FEA164E1FFA86FCB1FBFEF743
:100880000EFB1710110C41EA004107FB0CF88845DC
:1008900004FA03F43AD9711807F1FF3001D2884500
:1008A0001FD8A1EB0801B1FBFEF808FB0CF70EFB0B
:1008B000181192B242EA0142BA422FD2B21808F19C
:1008C000FF31C6D2BA42C4D2A8F102013244C0E715
:1008D000F0459CD2BEEB020367EB0C070138B9462A
:1008E00095E7A6EB08084144B81EB1FBFEF808FBEB
:1008F0000CF7DCE73B467FE7504667E70846FBE638
:100900003444023832E7023F32441BE7A1EB0801CE
:100910003846B1FBFEF808FB0CF7C8E7414698E7FC
:10092000704700BF80B588B000AF07F10C0300220C
:100930001A605A609A60DA601A610023BB601C4B2F
:100940001B6B1B4A43F001031363194B1B6B03F032
:100950000103BB60BB6800237B60154B1B6B144A13
:1009600043F002031363124B1B6B03F002037B6023
:100970007B6800224FF480710E4800F0DBFE0122FC
:100980004FF400710B4800F0D5FE4FF44073FB604C
:1009900001233B6100237B610023BB6107F10C0352
:1009A0001946044800F042FD00BF2037BD4680BD17
:1009B000003802400004024080B500AF124B134AD9
:1009C0001A60114B124A5A600F4B00229A600E4B6C
:1009D0000022DA600C4B4FF480421A610A4B00226D
:1009E0005A61094B00229A61074B0022DA61064BDB
:1009F00000221A62044800F0B7FE0346002B01D023
:100A000000F022F900BF80BD78000020005C0040AB
:100A1000A086010080B58AB000AF786007F11403AA
:100A200000221A605A609A60DA601A617B681B685B
:100A3000284A93424AD100233B61274B1B6B264A2D
:100A400043F001031363244B1B6B03F001033B6171
:100A50003B690023FB60204B1B6B1F4A43F00203E2
:100A600013631D4B1B6B03F00203FB60FB684FF429
:100A700080737B611223BB610123FB6103233B6213
:100A800004237B6207F114031946144800F0CEFCDE
:100A900010237B611223BB610123FB6103233B62B3
:100AA00009237B6207F1140319460D4800F0BEFCD0
:100AB0000023BB60084B1B6C074A43F4000313641C
:100AC000054B1B6C03F40003BB60BB6800BF2837F9
:100AD000BD4680BD005C004000380240000002407E
:100AE00000040240B0B586B002AF00F023FB00F076
:100AF0003BF8FFF717FF00F081FAFFF75DFF00F00A
:100B00002EF93A1D07F108031146184600F02EF998
:100B10000346FB73FB7B002B14D1BB681846FFF721
:100B200013FD04460D467B681846FFF70DFD02468F
:100B30000B46CDE9002322462B460849084800F021
:100B400089F805E0FB7B1A460649054800F082F863
:100B50004FF47A7000F060FBD3E700BFBC4100089F
:100B6000D0000020DC41000880B594B000AF07F150
:100B7000200330220021184602F08EFE07F10C03FC
:100B800000221A605A609A60DA601A610023BB6022
:100B90002A4B1B6C294A43F080531364274B1B6C70
:100BA00003F08053BB60BB6800237B60244B1B6851
:100BB00023F44043224A43F400431360204B1B6854
:100BC00003F440437B607B6802233B620123FB62AA
:100BD00010233B630223BB630023FB6308233B64B6
:100BE00054237B640223BB640423FB6407F12003CA
:100BF000184601F0B3FD0346002B01D000F024F8A5
:100C0000104B02221A700F23FB6002233B6100236A
:100C10007B614FF48053BB610023FB6107F10C0340
:100C20000221184602F012F80346002B01D000F012
:100C30000BF800BF5037BD4680BD00BF00380240F2
:100C400000700040003C024080B400AF72B600BFAC
:100C500000BFFDE70EB480B5C7B000AF07F58C73D9
:100C6000A3F58A73186007F58C73A3F58A731B6864
:100C7000002B33D0D7F82431002B2FD007F59472F6
:100C800007F58C73A3F586731A6007F58C73A3F5CB
:100C9000867307F110001B68D7F824214FF4807188
:100CA00002F0ECFDC7F81401D7F81431002B16DD63
:100CB000D7F81431FF2B28BFFF23C7F81031D7F81E
:100CC00010319AB207F1100107F58C73A3F58A7001
:100CD0004FF0FF33006802F0E7F900E000BF07F5CE
:100CE0008E77BD46BDE8804003B0704780B485B0C4
:100CF00000AF78600B46FB70FF23FB730023BB73D0
:100D000022E0BB7B7A6813441A78FB7B5340FB7369
:100D100000237B7312E097F90F30002B08DA97F964
:100D20000F305B005BB283F031035BB2FB7302E018
:100D3000FB7B5B00FB737B7B01337B737B7B072B34
:100D4000E9D9BB7B0133BB73BA7BFB789A42D8D31A
:100D5000FB7B18461437BD465DF8047B704780B5B1
:100D600000AF0A2000F058FA00BF80BD80B588B0FF
:100D700002AF78603960FD23FB7407F113024FF076
:100D8000FF33009301238821454800F031FE0346DC
:100D9000002B01D001237EE00A2000F03DFA07F18C
:100DA0000C024FF0FF330093062388213C4800F0EB
:100DB0001DFF0346002B01D002236CE007F10C035A
:100DC00002211846FFF792FF03461A46BB7B9A4260
:100DD0000BD107F10C03033302211846FFF786FFFE
:100DE00003461A467B7C9A4201D0032353E03B7BA7
:100DF0001BB21B021AB27B7B1BB213431BB2FB82DA
:100E0000FB7B1BB21B021AB23B7C1BB213431BB20F
:100E1000BB82FB8A07EE903AB8EE677ADFED216A73
:100E2000C7EE267A9FED207A67EE877A9FED1F7ACC
:100E300077EEC77A7B68C3ED007ABB8A07EE903AFB
:100E4000B8EE677ADFED176AC7EE267A9FED187A5B
:100E500067EE877AB1EE087A77EEC77A3B68C3ED22
:100E6000007A3B68D3ED007A9FED127AF4EEC77AF0
:100E7000F1EE10FA02DD3B680F4A1A603B68D3EDD1
:100E8000007AF5EEC07AF1EE10FA03D53B684FF028
:100E900000021A60002318461837BD4680BD00BF07
:100EA0007800002000FF7F4700002F4300003442FD
:100EB0000000FA420000C8420000C84280B483B07B
:100EC00000AF00237B60104B5B6C0F4A43F4804300
:100ED00053640D4B5B6C03F480437B607B680023A1
:100EE0003B60094B1B6C084A43F080531364064B6C
:100EF0001B6C03F080533B603B6800BF0C37BD4662
:100F00005DF8047B704700BF0038024080B400AF3A
:100F100000BFFDE780B400AF00BFFDE780B400AFC5
:100F200000BFFDE780B400AF00BFFDE780B400AFB5
:100F300000BFFDE780B400AF00BFBD465DF8047B95
:100F4000704780B400AF00BFBD465DF8047B7047BA
:100F500080B400AF00BFBD465DF8047B704780B52C
:100F600000AF00F039F900BF80BD000080B586B049
:100F700000AF7860144A154BD31A7B617B693B61E3
:100F8000134B1B68002B02D1114B124A1A60104BF5
:100F90001A687B6813443A699A4207D202F084FCCB
:100FA00003460C221A604FF0FF3309E0084B1B6820
:100FB000FB60074B1A687B681344054A1360FB68A3
:100FC00018461837BD4680BD00000120000400000F
:100FD000CC0000206802002080B400AF064BD3F89C
:100FE0008830054A43F47003C2F8883000BFBD461C
:100FF0005DF8047B704700BF00ED00E080B500AFF6
:10100000114B124A1A60104B4FF416525A600E4B95
:1010100000229A600C4B0022DA600B4B00221A610E
:10102000094B0C225A61084B00229A61064B0022A0
:10103000DA61054801F0E8FF0346002B01D0FFF715
:1010400003FE00BF80BD00BFD000002000100140A3
:1010500080B58AB000AF786007F1140300221A60EF
:101060005A609A60DA601A617B681B68194A934279
:101070002CD100233B61184B5B6C174A43F01003E3
:101080005364154B5B6C03F010033B613B69002319
:10109000FB60114B1B6B104A43F0010313630E4BB3
:1010A0001B6B03F00103FB60FB684FF4C0637B61C3
:1010B0000223BB610023FB6103233B6207237B62A6
:1010C00007F114031946054800F0B0F900BF2837AE
:1010D000BD4680BD001001400038024000000240C3
:1010E000DFF834D0FFF778FF0C480D490D4A002394
:1010F00002E0D458C4500433C4188C42F9D30A4ACD
:101100000A4C002301E013600432A242FBD302F038
:10111000D1FBFFF7E7FC7047000001200000002032
:101120005C0000204C4200085C00002064020020AB
:10113000FEE7000080B500AF0E4B1B680D4A43F47C
:10114000007313600B4B1B680A4A43F480631360FF
:10115000084B1B68074A43F480731360032000F0B8
:1011600031F90F2000F008F8FFF7A8FE0023184619
:1011700080BD00BF003C024080B582B000AF786007
:10118000124B1A68124B1B7819464FF47A73B3FB53
:10119000F1F3B2FBF3F3184600F03BF90346002BE2
:1011A00001D001230EE07B680F2B0AD8002279685A
:1011B0004FF0FF3000F011F9064A7B6813600023FE
:1011C00000E0012318460837BD4680BD000000201E
:1011D000080000200400002080B400AF064B1B78FC
:1011E0001A46064B1B681344044A136000BFBD46F1
:1011F0005DF8047B704700BF080000201801002044
:1012000080B400AF034B1B681846BD465DF8047BF5
:10121000704700BF1801002080B584B000AF78602F
:10122000FFF7EEFFB8607B68FB60FB68B3F1FF3F40
:1012300005D00A4B1B781A46FB681344FB6000BFBD
:10124000FFF7DEFF0246BB68D31AFA689A42F7D866
:1012500000BF00BF1037BD4680BD00BF08000020A2
:1012600080B485B000AF78607B6803F00703FB6053
:101270000C4BDB68BB60BA684FF6FF031340BB60E2
:10128000FB681A02BB68134343F0BF6343F40033A7
:10129000BB60044ABB68D36000BF1437BD465DF82D
:1012A000047B704700ED00E080B400AF044BDB68C6
:1012B0001B0A03F007031846BD465DF8047B704720
:1012C00000ED00E080B483B000AF03463960FB71ED
:1012D00097F90730002B0ADB3B68DAB20C4997F923
:1012E00007301201D2B20B4483F800230AE03B68B6
:1012F000DAB20849FB7903F00F03043B1201D2B2C2
:101300000B441A7600BF0C37BD465DF8047B70476E
:1013100000E100E000ED00E080B489B000AFF860CB
:10132000B9607A60FB6803F00703FB61FB69C3F1F6
:101330000703042B28BF0423BB61FB690433062B7E
:1013400002D9FB69033B00E000237B614FF0FF32D1
:10135000BB6902FA03F3DA43BB681A407B699A401F
:101360004FF0FF317B6901FA03F3D9437B680B40EF
:10137000134318462437BD465DF8047B70470000D0
:1013800080B582B000AF78607B68013BB3F1807FAD
:1013900001D301230FE00A4A7B68013B53600F2110
:1013A0004FF0FF30FFF78EFF054B00229A60044B91
:1013B00007221A60002318460837BD4680BD00BFCB
:1013C00010E000E080B582B000AF78607868FFF789
:1013D00047FF00BF0837BD4680BD80B586B000AF6F
:1013E0000346B9607A60FB7300237B61FFF75CFF03
:1013F00078617A68B9687869FFF78EFF024697F9D5
:101400000F3011461846FFF75DFF00BF1837BD4685
:1014100080BD80B582B000AF78607868FFF7B0FF1C
:10142000034618460837BD4680BD000080B489B029
:1014300000AF7860396000237B6100233B610023AB
:10144000BB610023FB6159E10122FB6902FA03F34E
:101450007B613B681B687A6913403B613A697B6931
:101460009A4240F048813B685B6803F00303012B1C
:1014700005D03B685B6803F00303022B30D17B6827
:101480009B68BB61FB695B00032202FA03F3DB4349
:10149000BA691340BB613B68DA68FB695B0002FA1A
:1014A00003F3BA691343BB617B68BA699A607B68CE
:1014B0005B68BB610122FB6902FA03F3DB43BA6993
:1014C0001340BB613B685B681B0903F00102FB69C9
:1014D00002FA03F3BA691343BB617B68BA695A60C5
:1014E0003B685B6803F00303032B17D07B68DB6862
:1014F000BB61FB695B00032202FA03F3DB43BA69B9
:101500001340BB613B689A68FB695B0002FA03F316
:10151000BA691343BB617B68BA69DA603B685B6890
:1015200003F00303022B23D1FB69DA087B6808323E
:1015300053F82230BB61FB6903F007039B000F22C5
:1015400002FA03F3DB43BA691340BB613B681A69D3
:10155000FB6903F007039B0002FA03F3BA69134324
:10156000BB61FB69DA087B680832B96943F822106D
:101570007B681B68BB61FB695B00032202FA03F313
:10158000DB43BA691340BB613B685B6803F003024D
:10159000FB695B0002FA03F3BA691343BB617B6822
:1015A000BA691A603B685B6803F44033002B00F0B3
:1015B000A2800023FB60574B5B6C564A43F4804388
:1015C0005364544B5B6C03F48043FB60FB68524AEA
:1015D000FB699B08023352F82330BB61FB6903F0BF
:1015E00003039B000F2202FA03F3DB43BA691340A3
:1015F000BB617B68494A934219D07B68484A934251
:1016000013D07B68474A93420DD07B68464A934289
:1016100007D07B68454A934201D1042308E00723A1
:1016200006E0032304E0022302E0012300E000239C
:10163000FA6902F0030292009340BA691343BB6156
:101640003549FB699B080233BA6941F82320384BBE
:101650009B68BB613B69DB43BA691340BB613B6874
:101660005B6803F48013002B03D0BA693B69134312
:10167000BB612F4ABB6993602D4BDB68BB613B6943
:10168000DB43BA691340BB613B685B6803F400133A
:10169000002B03D0BA693B691343BB61244ABB6981
:1016A000D360234B5B68BB613B69DB43BA69134082
:1016B000BB613B685B6803F40033002B03D0BA695D
:1016C0003B691343BB611A4ABB695360184B1B68E3
:1016D000BB613B69DB43BA691340BB613B685B6834
:1016E00003F48033002B03D0BA693B691343BB6119
:1016F0000F4ABB691360FB690133FB61FB690F2B68
:101700007FF6A2AE00BF00BF2437BD465DF8047B64
:10171000704700BF0038024000380140000002401E
:101720000004024000080240000C02400010024089
:10173000003C014080B483B000AF78600B467B80F2
:1017400013467B707B78002B03D07A887B689A6184
:1017500003E07B881A047B689A6100BF0C37BD46A2
:101760005DF8047B7047000080B584B000AF7860FE
:101770007B68002B01D101232BE17B6893F83D307E
:10178000DBB2002B06D17B68002283F83C2078680E
:10179000FFF740F97B68242283F83D207B681B68B3
:1017A0001A687B681B6822F001021A607B681B685C
:1017B0001A687B681B6842F400421A607B681B68E9
:1017C0001A687B681B6822F400421A6001F0F4FB7F
:1017D000F8607B685B68814A934207D8FB68804A5F
:1017E000934294BF01230023DBB206E0FB687D4AED
:1017F000934294BF01230023DBB2002B01D00123CD
:10180000E7E0FB68784AA2FB03239B0CBB607B6884
:101810001B685B6823F03F017B681B68BA680A435A
:101820005A607B681B681B6A23F03F017B685B681A
:101830006A4A934202D8BB68013309E0BB684FF49F
:10184000967202FB03F3694AA2FB03239B0901334F
:101850007A6812680B4313627B681B68DB6923F4A8
:101860004F4222F0FF027B685B685C498B4219D8CB
:10187000FB68591E7B685B685B00B1FBF3F3591C86
:1018800040F6FC730B40002B0AD0FB68591E7B68A6
:101890005B685B00B1FBF3F30133C3F30B0351E06F
:1018A00004234FE07B689B68002B11D1FB68581E16
:1018B0007B6859680B465B000B44B0FBF3F30133C4
:1018C000C3F30B03002B0CBF01230023DBB212E098
:1018D000FB68581E7B6859680B469B000B449900B7
:1018E0000B44B0FBF3F30133C3F30B03002B0CBF2A
:1018F00001230023DBB2002B01D0012322E07B680F
:101900009B68002B0ED1FB68581E7B6859680B46FC
:101910005B000B44B0FBF3F30133C3F30B0343F45D
:1019200000430FE0FB68581E7B6859680B469B001C
:101930000B4499000B44B0FBF3F30133C3F30B03E7
:1019400043F44043796809681343CB617B681B68A3
:101950001B6823F0C0017B68DA697B681B6A1A4345
:101960007B681B680A431A607B681B689B6823F4CA
:10197000034323F0FF037A6811697A68D268114340
:101980007A6812680B4393607B681B68DB6823F0FE
:10199000FF017B685A697B689B691A437B681B68F7
:1019A0000A43DA607B681B681A687B681B6842F030
:1019B00001021A607B6800221A647B68202283F887
:1019C0003D207B6800221A637B68002283F83E205A
:1019D000002318461037BD4680BD00BFA086010019
:1019E0007F841E00FF083D0083DE1B43D34D621041
:1019F00080B588B002AFF8607A601A460B467B81EA
:101A000013463B81FFF7FCFB7861FB6893F83D30A0
:101A1000DBB2202B40F0E0807B6900931923012288
:101A20007049F86800F064FC0346002B01D00223E3
:101A3000D3E0FB6893F83C30012B01D10223CCE0CA
:101A4000FB68012283F83C20FB681B681B6803F0DD
:101A50000103012B07D0FB681B681A68FB681B6831
:101A600042F001021A60FB681B681A68FB681B6879
:101A700022F400621A60FB68212283F83D20FB6893
:101A8000102283F83E20FB6800221A64FB687A6803
:101A90005A62FB683A895A85FB685B8D9AB2FB688B
:101AA0001A85FB68504ADA6279897B693A6AF86874
:101AB00000F0CEFA0346002B01D001238DE0002375
:101AC0003B61FB681B685B693B61FB681B689B694A
:101AD0003B613B6966E07A69396AF86800F022FD8B
:101AE0000346002B0DD0FB681B6C042B07D1FB6851
:101AF0001B681A68FB681B6842F400721A600123B5
:101B00006BE0FB685B6A1A78FB681B681A61FB680C
:101B10005B6A5A1CFB685A62FB685B8D9BB2013B97
:101B20009AB2FB685A85FB681B8D013B9AB2FB6831
:101B30001A85FB681B685B6903F00403042B1BD147
:101B4000FB681B8D002B17D0FB685B6A1A78FB685B
:101B50001B681A61FB685B6A5A1CFB685A62FB6867
:101B60005B8D9BB2013B9AB2FB685A85FB681B8D6B
:101B7000013B9AB2FB681A857A69396AF86800F005
:101B800019FD0346002B0DD0FB681B6C042B07D1FD
:101B9000FB681B681A68FB681B6842F400721A60D5
:101BA00001231AE0FB681B8D002B94D1FB681B6896
:101BB0001A68FB681B6842F400721A60FB682022F6
:101BC00083F83D20FB68002283F83E20FB6800225A
:101BD00083F83C20002300E0022318461837BD4656
:101BE00080BD00BF020010000000FFFF80B58CB078
:101BF00002AFF8607A601A460B467B8113463B8140
:101C0000FFF7FEFA7862FB6893F83D30DBB2202BD9
:101C100040F017827B6A0093192301227C49F868FF
:101C200000F066FB0346002B01D002230AE2FB68AA
:101C300093F83C30012B01D1022303E2FB6801221F
:101C400083F83C20FB681B681B6803F00103012B31
:101C500007D0FB681B681A68FB681B6842F001022A
:101C60001A60FB681B681A68FB681B6822F4006234
:101C70001A60FB68222283F83D20FB68102283F85B
:101C80003E20FB6800221A64FB687A685A62FB688F
:101C90003A895A85FB685B8D9AB2FB681A85FB68A6
:101CA0005C4ADA6279897B6A3A6BF86800F052FA2A
:101CB0000346002B01D00123C4E1FB681B8D002BE0
:101CC00013D100233B62FB681B685B693B62FB68C6
:101CD0001B689B693B623B6AFB681B681A68FB6870
:101CE0001B6842F400721A6098E1FB681B8D012B9F
:101CF0001BD1FB681B681A68FB681B6822F48062B2
:101D00001A600023FB61FB681B685B69FB61FB6871
:101D10001B689B69FB61FB69FB681B681A68FB68B1
:101D20001B6842F400721A6078E1FB681B8D022B7D
:101D30001BD1FB681B681A68FB681B6822F4806271
:101D40001A60FB681B681A68FB681B6842F4006233
:101D50001A600023BB61FB681B685B69BB61FB68A1
:101D60001B689B69BB61BB6958E1FB681B681A680B
:101D7000FB681B6842F480621A6000237B61FB6889
:101D80001B685B697B61FB681B689B697B617B6986
:101D900044E1FB681B8D032B00F2F180FB681B8D77
:101DA000012B23D17A6A396BF86800F04BFC0346AB
:101DB000002B01D0012345E1FB681B681A69FB6811
:101DC0005B6AD2B21A70FB685B6A5A1CFB685A6283
:101DD000FB681B8D013B9AB2FB681A85FB685B8D23
:101DE0009BB2013B9AB2FB685A8517E1FB681B8DD9
:101DF000022B4ED17B6A00933B6B00220649F868A8
:101E000000F076FA0346002B08D001231AE100BF48
:101E1000020010000000FFFF04000100FB681B68C7
:101E20001A68FB681B6842F400721A60FB681B6842
:101E30001A69FB685B6AD2B21A70FB685B6A5A1C4B
:101E4000FB685A62FB681B8D013B9AB2FB681A85DE
:101E5000FB685B8D9BB2013B9AB2FB685A85FB68BD
:101E60001B681A69FB685B6AD2B21A70FB685B6A0E
:101E70005A1CFB685A62FB681B8D013B9AB2FB68D7
:101E80001A85FB685B8D9BB2013B9AB2FB685A8551
:101E9000C4E07B6A00933B6B00226C49F86800F059
:101EA00027FA0346002B01D00123CBE0FB681B6817
:101EB0001A68FB681B6822F480621A60FB681B6862
:101EC0001A69FB685B6AD2B21A70FB685B6A5A1CBB
:101ED000FB685A62FB681B8D013B9AB2FB681A854E
:101EE000FB685B8D9BB2013B9AB2FB685A857B6AAB
:101EF00000933B6B00225549F86800F0F9F903465E
:101F0000002B01D001239DE0FB681B681A68FB6869
:101F10001B6842F400721A60FB681B681A69FB6850
:101F20005B6AD2B21A70FB685B6A5A1CFB685A6221
:101F3000FB681B8D013B9AB2FB681A85FB685B8DC1
:101F40009BB2013B9AB2FB685A85FB681B681A6911
:101F5000FB685B6AD2B21A70FB685B6A5A1CFB684A
:101F60005A62FB681B8D013B9AB2FB681A85FB68BD
:101F70005B8D9BB2013B9AB2FB685A854EE07A6A50
:101F8000396BF86800F05EFB0346002B01D001239B
:101F900058E0FB681B681A69FB685B6AD2B21A706A
:101FA000FB685B6A5A1CFB685A62FB681B8D013B2D
:101FB0009AB2FB681A85FB685B8D9BB2013B9AB2B3
:101FC000FB685A85FB681B685B6903F00403042BFC
:101FD00024D1FB681B8D032B07D1FB681B681A6893
:101FE000FB681B6822F480621A60FB681B681A6930
:101FF000FB685B6AD2B21A70FB685B6A5A1CFB68AA
:102000005A62FB681B8D013B9AB2FB681A85FB681C
:102010005B8D9BB2013B9AB2FB685A85FB681B8DB6
:10202000002B7FF4B6AEFB68202283F83D20FB68CE
:10203000002283F83E20FB68002283F83C20002326
:1020400000E0022318462837BD4680BD0400010089
:1020500080B588B002AFF8607A603B600B467B8148
:10206000FB68DB6A7B617B69082B06D07B69012BEF
:1020700003D07B6913F5803F08D1FB681B681A68A1
:10208000FB681B6842F480721A600BE0FB681B6BF4
:10209000122B07D1FB681B681A68FB681B6842F4A7
:1020A00080721A603B6800937B6800224FF0011138
:1020B000F86800F01DF90346002B0DD0FB681B6883
:1020C0001B6803F48073B3F5807F03D1FB684FF482
:1020D00000721A64032335E0FB681B69B3F5804F77
:1020E00008D17B89DBB21A46FB681B6802F0FE024E
:1020F0001A611BE07B89DB11DBB203F00603DBB264
:1021000063F00F03DAB2FB681B681A613B687A68F8
:102110000E49F86800F066F90346002B01D0012350
:1021200010E07B89DAB2FB681B681A613B687A6849
:102130000749F86800F056F90346002B01D0012347
:1021400000E0002318461837BD4680BD0800010096
:102150000200010080B588B002AFF8607A603B6091
:102160000B467B81FB68DB6A7B61FB681B681A6836
:10217000FB681B6842F480621A607B69082B06D0FA
:102180007B69012B03D07B6913F5803F08D1FB6885
:102190001B681A68FB681B6842F480721A600BE0C7
:1021A000FB681B6B112B07D1FB681B681A68FB6867
:1021B0001B6842F480721A603B6800937B680022BF
:1021C0004FF00111F86800F093F80346002B0DD092
:1021D000FB681B681B6803F48073B3F5807F03D131
:1021E000FB684FF400721A64032379E0FB681B69F3
:1021F000B3F5804F08D17B89DBB243F00103DAB23B
:10220000FB681B681A615FE07B89DB11DBB203F0BE
:102210000603DBB263F00F03DAB2FB681B681A61D6
:102220003B687A683049F86800F0DCF80346002B18
:1022300001D0012354E07B89DAB2FB681B681A6184
:102240003B687A682949F86800F0CCF80346002B0F
:1022500001D0012344E000233B61FB681B685B69FC
:102260003B61FB681B689B693B613B69FB681B68C2
:102270001A68FB681B6842F480721A603B6800931E
:102280007B6800224FF00111F86800F031F8034636
:10229000002B0DD0FB681B681B6803F48073B3F53B
:1022A000807F03D1FB684FF400721A64032317E0A8
:1022B0007B89DB11DBB203F00603DBB263F00E03B4
:1022C000DAB2FB681B681A613B687A680749F868EC
:1022D00000F088F80346002B01D0012300E0002322
:1022E00018461837BD4680BD0800010002000100F5
:1022F00080B584B000AFF860B9603B601346FB71F5
:1023000048E03B68B3F1FF3F44D0FEF779FF024657
:10231000BB69D31A3A689A4202D33B68002B39D181
:10232000BB681B0CDBB2012B0DD1FB681B685B6922
:10233000DA43BB6813409BB2002B0CBF0123002380
:10234000DBB21A460CE0FB681B689B69DA43BB688A
:1023500013409BB2002B0CBF01230023DBB21A46B3
:10236000FB799A4216D1FB6800221A63FB6820228F
:1023700083F83D20FB68002283F83E20FB681B6C3D
:1023800043F02002FB681A64FB68002283F83C20BB
:10239000012323E0BB681B0CDBB2012B0DD1FB68D2
:1023A0001B685B69DA43BB6813409BB2002B0CBF10
:1023B00001230023DBB21A460CE0FB681B689B6913
:1023C000DA43BB6813409BB2002B0CBF01230023F0
:1023D000DBB21A46FB799A4293D000231846103795
:1023E000BD4680BD80B584B000AFF860B9607A604A
:1023F0003B6071E0FB681B685B6903F48063B3F5C5
:10240000806F23D1FB681B681A68FB681B6842F465
:1024100000721A60FB681B686FF480625A61FB6887
:1024200000221A63FB68202283F83D20FB6800220B
:1024300083F83E20FB681B6C43F00402FB681A64BF
:10244000FB68002283F83C20012367E07B68B3F13E
:10245000FF3F41D0FEF7D4FE02463B68D31A7A68AC
:102460009A4202D37B68002B36D1BB681B0CDBB2CF
:10247000012B0CD1FB681B685B69DA43BB68134016
:102480009BB2002B14BF01230023DBB20BE0FB68DF
:102490001B689B69DA43BB6813409BB2002B14BFD7
:1024A00001230023DBB2002B16D0FB6800221A6345
:1024B000FB68202283F83D20FB68002283F83E2041
:1024C000FB681B6C43F02002FB681A64FB68002267
:1024D00083F83C20012321E0BB681B0CDBB2012BFD
:1024E0000CD1FB681B685B69DA43BB6813409BB285
:1024F000002B14BF01230023DBB20BE0FB681B6839
:102500009B69DA43BB6813409BB2002B14BF0123C5
:102510000023DBB2002B7FF46DAF00231846103789
:10252000BD4680BD80B584B000AFF860B9607A6008
:1025300034E0F86800F0E3F80346002B01D00123F3
:1025400034E0BB68B3F1FF3F28D0FEF759FE0246E6
:102550007B68D31ABA689A4202D3BB68002B1DD19C
:10256000FB681B685B6903F08003802B16D0FB6857
:1025700000221A63FB68202283F83D20FB680022BA
:1025800083F83E20FB681B6C43F02002FB681A6452
:10259000FB68002283F83C20012307E0FB681B68EE
:1025A0005B6903F08003802BC3D1002318461037EA
:1025B000BD4680BD80B584B000AFF860B9607A6078
:1025C00034E0F86800F09BF80346002B01D00123AB
:1025D00034E0BB68B3F1FF3F28D0FEF711FE02469E
:1025E0007B68D31ABA689A4202D3BB68002B1DD10C
:1025F000FB681B685B6903F00403042B16D0FB68BF
:1026000000221A63FB68202283F83D20FB68002229
:1026100083F83E20FB681B6C43F02002FB681A64C1
:10262000FB68002283F83C20012307E0FB681B685D
:102630005B6903F00403042BC3D100231846103751
:10264000BD4680BD80B584B000AFF860B9607A60E7
:1026500049E0FB681B685B6903F01003102B19D17C
:10266000FB681B686FF010025A61FB6800221A6356
:10267000FB68202283F83D20FB68002283F83E207F
:10268000FB681A6CFB681A64FB68002283F83C2024
:10269000012330E0FEF7B4FD02467B68D31ABA6826
:1026A0009A4202D3BB68002B1DD1FB681B685B6993
:1026B00003F04003402B16D0FB6800221A63FB682E
:1026C000202283F83D20FB68002283F83E20FB682F
:1026D0001B6C43F02002FB681A64FB68002283F83D
:1026E0003C20012307E0FB681B685B6903F04003A3
:1026F000402BAED1002318461037BD4680BD80B4B4
:1027000083B000AF78607B681B685B6903F480630B
:10271000B3F5806F1BD17B681B686FF480625A61D0
:102720007B6800221A637B68202283F83D207B6847
:10273000002283F83E207B681B6C43F004027B6818
:102740001A647B68002283F83C20012300E0002308
:1027500018460C37BD465DF8047B704780B586B0DF
:1027600000AF78607B68002B01D1012367E27B68B2
:102770001B6803F00103002B75D0884B9B6803F0A6
:102780000C03042B0CD0854B9B6803F00C03082B27
:1027900012D1824B5B6803F48003B3F5800F0BD139
:1027A0007E4B1B6803F40033002B5BD07B685B68B7
:1027B000002B57D1012342E27B685B68B3F5803F71
:1027C00006D1764B1B68754A43F4803313601DE0D5
:1027D0007B685B68B3F5A02F0CD1704B1B686F4A08
:1027E00043F4802313606D4B1B686C4A43F48033C1
:1027F00013600BE0694B1B68684A23F48033136055
:10280000664B1B68654A23F4802313607B685B6812
:10281000002B13D0FEF7F4FC386108E0FEF7F0FC63
:1028200002463B69D31A642B01D9032307E25B4BB1
:102830001B6803F40033002BF0D014E0FEF7E0FC3B
:10284000386108E0FEF7DCFC02463B69D31A642BD2
:1028500001D90323F3E1514B1B6803F40033002B30
:10286000F0D100E000BF7B681B6803F00203002B7F
:1028700063D04A4B9B6803F00C03002B0BD0474BF3
:102880009B6803F00C03082B1CD1444B5B6803F4DA
:102890008003002B16D1414B1B6803F00203002B71
:1028A00005D07B68DB68012B01D00123C7E13B4BDE
:1028B0001B6823F0F8027B681B69DB003749134370
:1028C0000B603AE07B68DB68002B20D0344B0122A0
:1028D0001A60FEF795FC386108E0FEF791FC0246AD
:1028E0003B69D31A022B01D90323A8E12B4B1B68A8
:1028F00003F00203002BF0D0284B1B6823F0F802F2
:102900007B681B69DB00254913430B6015E0244BF2
:1029100000221A60FEF774FC386108E0FEF770FCD4
:1029200002463B69D31A022B01D9032387E11B4BD3
:102930001B6803F00203002BF0D17B681B6803F0D7
:102940000803002B36D07B685B69002B16D0154B33
:1029500001221A60FEF754FC386108E0FEF750FCD3
:1029600002463B69D31A022B01D9032367E10B4BC3
:102970005B6F03F00203002BF0D01BE0094B002239
:102980001A60FEF73DFC38610EE0FEF739FC0246A6
:102990003B69D31A022B07D9032350E100380240C8
:1029A00000004742800E4742884B5B6F03F00203F2
:1029B000002BEAD17B681B6803F00403002B00F0B6
:1029C00097800023FB75814B1B6C03F08053002B19
:1029D0000FD10023BB607D4B1B6C7C4A43F08053BE
:1029E00013647A4B1B6C03F08053BB60BB680123FC
:1029F000FB75774B1B6803F48073002B18D1744B65
:102A00001B68734A43F480731360FEF7F9FB386167
:102A100008E0FEF7F5FB02463B69D31A022B01D909
:102A200003230CE16A4B1B6803F48073002BF0D086
:102A30007B689B68012B06D1644B1B6F634A43F094
:102A4000010313671CE07B689B68052B0CD15F4B6F
:102A50001B6F5E4A43F0040313675C4B1B6F5B4ABA
:102A600043F0010313670BE0584B1B6F574A23F0E9
:102A700001031367554B1B6F544A23F0040313677C
:102A80007B689B68002B15D0FEF7BAFB38610AE023
:102A9000FEF7B6FB02463B69D31A41F288329342F5
:102AA00001D90323CBE0494B1B6F03F00203002B3A
:102AB000EED014E0FEF7A4FB38610AE0FEF7A0FBBD
:102AC00002463B69D31A41F28832934201D903236B
:102AD000B5E03E4B1B6F03F00203002BEED1FB7DF4
:102AE000012B05D1394B1B6C384A23F080531364FA
:102AF0007B689B69002B00F0A180344B9B6803F03E
:102B00000C03082B5CD07B689B69022B41D1314BB5
:102B100000221A60FEF774FB386108E0FEF770FBD4
:102B200002463B69D31A022B01D9032387E0274BC6
:102B30001B6803F00073002BF0D17B68DA697B68B7
:102B40001B6A1A437B685B6A9B011A437B689B6A1A
:102B50005B08013B1B041A437B68DB6A1B061B49AD
:102B600013434B601B4B01221A60FEF749FB38618F
:102B700008E0FEF745FB02463B69D31A022B01D958
:102B800003235CE0114B1B6803F00073002BF0D0B3
:102B900054E0104B00221A60FEF732FB386108E067
:102BA000FEF72EFB02463B69D31A022B01D9032301
:102BB00045E0064B1B6803F00073002BF0D13DE0AD
:102BC0007B689B69012B07D1012338E00038024064
:102BD00000700040600047421B4B5B68FB607B68F5
:102BE0009B69012B28D0FB6803F480027B68DB69BA
:102BF0009A4221D1FB6803F03F027B681B6A9A422C
:102C00001AD1FA6847F6C07313407A68526A920183
:102C1000934211D1FB6803F440327B689B6A5B08E6
:102C2000013B1B049A4207D1FB6803F070627B688A
:102C3000DB6A1B069A4201D0012300E000231846FC
:102C40001837BD4680BD00BF0038024080B584B053
:102C500000AF786039607B68002B01D10123CCE0A4
:102C6000684B1B6803F007033A689A420CD9654B1E
:102C70003A68D2B21A70634B1B6803F007033A68D4
:102C80009A4201D00123B8E07B681B6803F002037D
:102C9000002B20D07B681B6803F00403002B05D0B9
:102CA000594B9B68584A43F4E05393607B681B6818
:102CB00003F00803002B05D0534B9B68524A43F4A2
:102CC00060439360504B9B6823F0F0027B689B68E5
:102CD0004D4913438B607B681B6803F00103002B95
:102CE00044D07B685B68012B07D1474B1B6803F41A
:102CF0000033002B19D101237FE07B685B68022B36
:102D000003D07B685B68032B07D13F4B1B6803F044
:102D10000073002B09D101236FE03B4B1B6803F0CC
:102D20000203002B01D1012367E0374B9B6823F09E
:102D300003027B685B68344913438B60FEF760FADB
:102D4000F8600AE0FEF75CFA0246FB68D31A41F22B
:102D50008832934201D903234FE02B4B9B6803F049
:102D60000C027B685B689B009A42EBD1254B1B6889
:102D700003F007033A689A420CD2224B3A68D2B267
:102D80001A70204B1B6803F007033A689A4201D07F
:102D9000012332E07B681B6803F00403002B08D09A
:102DA000194B9B6823F4E0527B68DB681649134398
:102DB0008B607B681B6803F00803002B09D0124B63
:102DC0009B6823F460427B681B69DB000E49134358
:102DD0008B6000F021F802460B4B9B681B0903F047
:102DE0000F030A49CB5C22FA03F3094A1360094B2B
:102DF0001B681846FEF7C0F9002318461037BD4679
:102E000080BD00BF003C024000380240F041000895
:102E100000000020040000202DE9B04F90B000AF6A
:102E200000237B630023FB6300233B630023BB631E
:102E3000584B9B6803F00C03082B0DD0082B00F2B5
:102E4000A080002B02D0042B03D09AE0524BBB632E
:102E50009AE0524BBB6397E04E4B5B6803F03F0335
:102E60007B634C4B5B6803F48003002B27D0494BFA
:102E70005B689B0900223B627A623B6AC3F30800ED
:102E80000021464B03FB01F2002300FB03F3134434
:102E9000424AA0FB0221F962BA62FA6A1344FB6259
:102EA0007B6B0022BB61FA61D7E90623D7E90A01EF
:102EB000FDF7A2FB02460B461346FB6353E0354B7E
:102EC0005B689B0900223B617A613B69C3F3080A96
:102ED0004FF0000B52465B464FF000004FF00001F0
:102EE000590141EAD261500102460B46B2EB0A0891
:102EF00063EB0B094FF000024FF000034FEA891318
:102F000043EA98634FEA8812B2EB080463EB0905C1
:102F10004FF000024FF00003EB0043EA5473E2006D
:102F200014461D4614EB0A033B6045EB0B037B6024
:102F30004FF000024FF00003D7E9004529468B020D
:102F4000214643EA915321468A02104619467B6B7B
:102F50000022BB60FA60D7E90223FDF74DFB024671
:102F60000B461346FB630B4B5B681B0C03F0030320
:102F700001335B003B63FA6B3B6BB2FBF3F3BB6368
:102F800002E0054BBB6300BFBB6B18464037BD4634
:102F9000BDE8B08F003802400024F40040787D0185
:102FA00080B400AF034B1B681846BD465DF8047B38
:102FB000704700BF0000002080B500AFFFF7F0FFB2
:102FC0000246054B9B689B0A03F007030349CB5C51
:102FD00022FA03F3184680BD003802400042000880
:102FE00080B500AFFFF7DCFF0246054B9B685B0B2B
:102FF00003F007030349CB5C22FA03F3184680BDB4
:10300000003802400042000880B582B000AF78600E
:103010007B68002B01D1012342E07B6893F84130AB
:10302000DBB2002B06D17B68002283F84020786851
:10303000FEF70EF87B68242283F841207B681B682A
:10304000DA687B681B6822F40052DA60786800F066
:1030500073F97B681B681A697B681B6822F49042CD
:103060001A617B681B685A697B681B6822F02A0218
:103070005A617B681B68DA687B681B6842F40052FF
:10308000DA607B6800225A647B68202283F8412042
:103090007B68202283F842207B6800225A63002349
:1030A00018460837BD4680BD80B58AB002AFF860CB
:1030B000B9603B601346FB8000237B61FB6893F89B
:1030C0004130DBB2202B75D1BB68002B02D0FB88CE
:1030D000002B01D101236EE0FB6800225A64FB68DB
:1030E000212283F84120FEF78BF87861FB68FA888B
:1030F0009A84FB68FA88DA84FB689B68B3F5805F82
:1031000008D1FB681B69002B04D10023FB61BB685D
:10311000BB6103E0BB68FB610023BB612EE03B6841
:1031200000937B6900228021F86800F048F803468C
:10313000002B05D0FB68202283F8412003233AE0CE
:10314000FB69002B0BD1BB691B881A46FB681B6807
:10315000C2F308025A60BB690233BB6107E0FB6936
:103160001A78FB681B685A60FB690133FB61FB68D6
:10317000DB8C9BB2013B9AB2FB68DA84FB68DB8C88
:103180009BB2002BCBD13B6800937B69002240218E
:10319000F86800F014F80346002B05D0FB682022E5
:1031A00083F84120032306E0FB68202283F84120B6
:1031B000002300E0022318462037BD4680BD80B5BD
:1031C00086B000AFF860B9603B601346FB713BE02E
:1031D0003B6AB3F1FF3F37D0FEF712F802463B6877
:1031E000D31A3A6A9A4202D33B6A002B01D10323D5
:1031F0003AE0FB681B68DB6803F00403002B23D074
:10320000BB68802B20D0BB68402B1DD0FB681B689F
:103210001B6803F00803082B16D100237B61FB68B1
:103220001B681B687B61FB681B685B687B617B6953
:10323000F86800F01DF8FB6808225A64FB68002259
:1032400083F8402001230FE0FB681B681A68BB6805
:103250001340BA689A420CBF01230023DBB21A461E
:10326000FB799A42B4D0002318461837BD4680BD7A
:1032700080B495B000AF78607B681B680C337B63CB
:103280007B6B53E8003F3B633B6B23F49073FB6421
:103290007B681B680C33FA6C3A64FB63F96B3A6C1D
:1032A00041E80023BB63BB6B002BE5D17B681B6847
:1032B00014333B623B6A53E8003FFB61FB6923F038
:1032C0000103BB647B681B681433BA6CFA62BB628F
:1032D000B96AFA6A41E800237B627B6A002BE5D178
:1032E0007B681B6B012B19D17B681B680C33FB605F
:1032F000FB6853E8003FBB60BB6823F010037B64AE
:103300007B681B680C337A6CBA617B617969BA6936
:1033100041E800233B613B69002BE5D17B6820221B
:1033200083F842207B6800221A6300BF5437BD46F1
:103330005DF8047B704700002DE9B04FC0B000AFCE
:10334000C7F8F400D7F8F4301B681B6923F4405029
:10335000D7F8F430D968D7F8F4301A6840EA010396
:103360001361D7F8F4309A68D7F8F4301B691A4320
:10337000D7F8F4305B691A43D7F8F430DB691343AC
:10338000C7F8F830D7F8F4301B68DB6823F416412F
:1033900021F00C01D7F8F4301A68D7F8F8300B4355
:1033A000D360D7F8F4301B685B6923F44070D7F81A
:1033B000F4309969D7F8F4301A6840EA0103536190
:1033C000D7F8F4301A688F4B9A4205D0D7F8F4300A
:1033D0001A688D4B9A4204D1FFF702FEC7F8FC0031
:1033E00003E0FFF7E9FDC7F8FC00D7F8F430DB692C
:1033F000B3F5004F40F00C81D7F8FC300022C7F83D
:10340000E830C7F8EC20D7E93A4522462B46911818
:10341000B9655B41FB65D7E91623214612EB01082C
:10342000294643EB01094FF000024FF000034FEA39
:10343000C90343EA58734FEAC802904699462346A7
:1034400018EB0303C7F8E0302B4649EB0303C7F83A
:10345000E430D7F8F4305B680022C7F8D830C7F8FA
:10346000DC20D7E936120B46DB183B65134642EBEE
:1034700003037B65D7E91423D7E93801FDF7BCF8CE
:1034800002460B46614BA3FB02235B091C01D7F8E4
:10349000FC300022C7F8D030C7F8D420D7E93489EF
:1034A00042464B469118B9645B41FB64D7E912234D
:1034B000414612EB010A494643EB010B4FF0000273
:1034C0004FF000034FEACB0343EA5A734FEACA02B4
:1034D00092469B4643461AEB0303C7F8C8304B4657
:1034E0004BEB0303C7F8CC30D7F8F4305B6800220D
:1034F000C7F8C030C7F8C420D7E930120B46DB1834
:103500003B64134642EB03037B64D7E91023D7E9FE
:103510003201FDF771F802460B4611463B4BA3FB07
:1035200001235B09642202FB03F3CB1ADB0003F1E6
:103530003202364BA3FB02235B095B0003F4F873F2
:103540001C44D7F8FC300022C7F8B830C7F8BC20BC
:10355000D7E92E8942464B469118B9635B41FB631C
:10356000D7E90E2341465118396349464B417B63E5
:103570004FF000024FF00003D7E90CAB5946CB00E7
:10358000514643EA51735146CA0010461946034654
:1035900042469B18C7F8B0304B460A4642EB03033D
:1035A000C7F8B430D7F8F4305B680022C7F8A83009
:1035B000C7F8AC20D7E92A120B46DB18BB621346CA
:1035C00042EB0303FB62D7E90A23D7E92C01FDF79D
:1035D00013F802460B460D4BA3FB02135B09642153
:1035E00001FB03F3D31ADB003233084AA2FB0323A7
:1035F0005B0903F00702D7F8F4301B6822449A6095
:1036000006E100BF00100140001401401F85EB518E
:10361000D7F8FC300022C7F8A030C7F8A420D7E9BB
:10362000288942464B46911839625B417B62D7E953
:10363000082341465418494643EB01054FF0000268
:103640004FF00003EB0043EA5473E20014461D46BA
:103650004346E318C7F898304B4645EB0303C7F8D9
:103660009C30D7F8F4305B680022C7F89030C7F878
:1036700094204FF000024FF00003D7E9244529467B
:103680008B00214643EA917321468A00D7E926013F
:10369000FCF7B2FF02460B46604BA3FB02235B091B
:1036A0001C01D7F8FC300022C7F88830C7F88C20FE
:1036B000D7E9228942464B469118B9615B41FB61CB
:1036C000D7E9062341465118396149464B417B6190
:1036D0004FF000024FF00003D7E904AB5946CB008E
:1036E000514643EA51735146CA00104619460346F3
:1036F00042469B18C7F880304B460A4642EB03030C
:10370000C7F88430D7F8F4305B680022BB67FA67EB
:103710004FF000024FF00003D7E91E8949468B00A5
:10372000414643EA917341468A00D7E92001FCF7FC
:1037300063FF02460B461146384BA3FB01235B098E
:10374000642202FB03F3CB1A1B013233334AA2FB80
:1037500003235B0903F0F0031C44D7F8FC3000227C
:103760003B677A67D7E91C8942464B469118B96096
:103770005B41FB60D7E90223414651183960494655
:103780004B417B604FF000024FF00003D7E900ABE4
:103790005946CB00514643EA51735146CA00104680
:1037A0001946034642469B18BB664B460A4642EB07
:1037B0000303FB66D7F8F4305B6800223B667A6649
:1037C0004FF000024FF00003D7E9188949468B00FB
:1037D000414643EA917341468A00D7E91A01FCF752
:1037E0000BFF02460B460D4BA3FB02135B09642142
:1037F00001FB03F3D31A1B013233084AA2FB032354
:103800005B0903F00F02D7F8F4301B6822449A607A
:1038100000BF07F58077BD46BDE8B08F1F85EB512F
:1038200030B51446002C9BB005461A4605DA8B23AA
:1038300003604FF0FF301BB030BD4FF40273ADF8A2
:103840000C304FF00003199314BF04F1FF332346EB
:10385000029305934FF6FF7300910491ADF80E307B
:1038600069461E9B00F0A4F9431CBCBF8B232B6050
:10387000002CE0D0009B00221A70DCE707B5009313
:1038800013460A46014603480068FFF7C9FF03B024
:1038900000BD00BF0C00002002440346934200D14B
:1038A000704703F8011BF9E7014B1868704700BF28
:1038B0000C00002070B50D4B0D4D5B1B9C100026BD
:1038C000A64209D100F06EFC0A4D0B4B5B1B9C100D
:1038D0000026A64205D170BD55F8043B9847013635
:1038E000EEE755F8043B98470136F2E744420008FA
:1038F00044420008444200084842000870477047AC
:1039000038B50546002941D051F8043C0C1F002B66
:10391000B8BFE41800F0E0F81D4A136833B96360DB
:1039200014602846BDE8384000F0DCB8A34208D94E
:10393000206821188B4201BF19685B680918216053
:10394000EDE71A465B680BB1A342FAD9116850182B
:10395000A0420BD120680144501883421160E0D18D
:1039600018685B68536008441060DAE702D90C23DA
:103970002B60D6E7206821188B4204BF19685B686A
:10398000636004BF091821605460CAE738BD00BFF6
:103990006002002070B50F4E0C463168054611B923
:1039A00000F0ACFB30602146284600F0A7FB431C2A
:1039B00003D14FF0FF34204670BDC41C24F0030433
:1039C000A042F8D0211A284600F098FB0130F2D12D
:1039D000EFE700BF5C0200202DE9F843CD1C25F085
:1039E000030508350C2D38BF0C25002D064601DBDC
:1039F000A94204D90C2333600020BDE8F883DFF826
:103A0000D48000F069F8D8F800301C4644BB294641
:103A10003046FFF7BFFF431C044658D1D8F800409A
:103A20002746002F43D1002C4BD02368394630461F
:103A300004EB030900F062FB814542D121686D1A55
:103A400029463046FFF7A6FF01303AD023682B44C1
:103A50002360D8F800305A6862BBC8F800700FE0E5
:103A60002268521B20D40B2A17D96119A342256062
:103A700018BF5960636808BFC8F8001062514B60F6
:103A8000304600F02FF804F10B00231D20F0070052
:103A9000C21A1CBF1B1AA350AFE76268A3420CBF37
:103AA000C8F800205A60EBE723466468AEE73C465E
:103AB0007F68B6E71A465B68A342FBD100235360D8
:103AC000DEE70C233360304600F00CF894E7056025
:103AD000D6E700BF600200200148FFF70FBF00BF1C
:103AE000580200200148FFF70ABF00BF580200201B
:103AF0002DE9F0478E681F46BE4282460C4690462E
:103B0000334653D8B1F90C0010F4906F2BD065698F
:103B10002368096905EB4505A3EB010905EBD5759C
:103B20007B1C6D104B44AB422A4684BF1D462A467F
:103B3000430527D511465046FFF74EFF064658B3BA
:103B400021694A4600F0EAFAA38923F4906343F01E
:103B50008003A381266165614E44A5EB09052660BB
:103B6000A5603E463B461F4620683A46414600F067
:103B7000ABFAA3689B1BA36023683B44236000202F
:103B8000BDE8F087504600F0D7FA06460028E1D19C
:103B900021695046FFF7B4FE0C23CAF80030A38910
:103BA00043F04003A3814FF0FF30E9E73E46DBE7F7
:103BB0002DE9F0471F468B891B069CB006460D4633
:103BC000144610D50B6973B94021FFF705FF286033
:103BD000286130B90C2333604FF0FF301CB0BDE8D2
:103BE000F08740236B610023099320238DF829304F
:103BF00003973023654F8DF82A304FF00108234694
:103C0000994613F8012B0AB1252AF9D1B9EB040A18
:103C10000BD05346224629463046FFF769FF013054
:103C200000F0A480099A5244099299F80030002BC0
:103C300000F09C8000234FF0FF32CDE9052309F10D
:103C40000109049307938DF853301A934C464F485B
:103C500014F8011B0522FCF7C3FA049BD0B9D8065F
:103C600044BF20228DF85320190744BF2B228DF822
:103C7000532099F800202A2A13D0079A4C46002096
:103C80004FF00A0C214611F8013B303B092B49D972
:103C900068B913E0C01B08FA00F018430490A1466D
:103CA000D4E7039A111D12680391002A01DB0792E1
:103CB00004E0524243F002030792049323782E2B30
:103CC0000AD163782A2B32D1039B1A1D1B680392F9
:103CD00043EAE37302340593DFF8C09021780322AE
:103CE0004846FCF77DFA38B1049BA0EB090040225E
:103CF000824013430134049314F8011B24488DF8C7
:103D000028100622FCF76CFA002835D0214818BB91
:103D1000039B073323F0070308330393099B0344F2
:103D200009936CE70CFB02320C460120AAE7002342
:103D30000134059319464FF00A0C204610F8012B68
:103D4000303A092A03D9002BC6D00591C4E70CFBF1
:103D5000012104460123F0E703AB00932A460E4BF2
:103D600004A93046AFF30080421CD7D1AB895B0673
:103D70003FF532AF099831E703AB00932A46064B73
:103D800004A9304600F07AF8EEE700BF08420008C8
:103D90001242000800000000F13A00080E4200083C
:103DA0002DE9F047164698468A680B69DDF82090A1
:103DB0009342B8BF1346336091F8432007460C4640
:103DC0000AB1013333602368990642BF3368023376
:103DD0003360256815F0060506D104F1190AE36879
:103DE00032689B1AAB4226DC94F843302268003BD1
:103DF00018BF012392062BD404F1430241463846F2
:103E0000C84701301ED02368226903F00603042B43
:103E100002BFE5683368ED1AA3680CBF25EAE575B3
:103E200000259342C4BF9B1AED1800261A34B542F0
:103E30001AD1002008E00123524641463846C847BF
:103E4000013003D14FF0FF30BDE8F0870135C6E700
:103E5000E1185A1C302081F84300224494F84510A0
:103E600082F843100233C7E7012322464146384611
:103E7000C8470130E6D00136D9E700002DE9F0430C
:103E80000D7E85B0782D90460C9E07460C469946CF
:103E900001F1430207D8622D0AD8002D00F0D78027
:103EA000582D00F0BC8004F1420684F842503BE0FB
:103EB000A5F16303152BF6D801A151F823F000BF3B
:103EC000193F00082D3F0008A73E0008A73E000844
:103ED000A73E0008A73E00082D3F0008A73E0008A7
:103EE000A73E0008A73E0008A73E0008354000088E
:103EF000573F0008E73F0008A73E0008A73E00081C
:103F000057400008A73E0008573F0008A73E00089A
:103F1000A73E0008EF3F000833681A1D1B68326097
:103F200004F1420684F842300123A1E0336820689E
:103F3000191D3160060601D51D6803E04506FBD555
:103F4000B3F90050002D03DA2D236D4284F843307D
:103F50005B480A2311E021683368080653F8045BC4
:103F600002D4490648BFADB23360237E54486F2B5C
:103F70005CD10823002184F843106668A660002EF7
:103F800005DB21682E4321F00401216050D0164644
:103F9000B5FBF3F103FB115C10F80CC006F801CD82
:103FA000AC4663450D46F3D9082B0BD12368DB07DC
:103FB00008D5236961689942DEBF302306F8013CC9
:103FC00006F1FF36921B2261CDF80090434603AA0A
:103FD00021463846FFF7E4FE01304ED14FF0FF3066
:103FE00005B0BDE8F083236843F020032360354823
:103FF000782584F845502368316813F0800F51F814
:10400000045B03D113F0400F18BFADB23160D90784
:1040100044BF43F0200323601DB11023AAE72848C2
:10402000E7E7236823F020032360F6E70A23A1E7EC
:104030001646B9E7336825686169181D30602E0699
:104040001B6801D5196002E06806FBD519800023C2
:1040500023611646B8E733681A1D32601E6862682D
:1040600000213046FCF7BCF808B1801B6060636833
:104070002361002384F84330A6E723693246414692
:104080003846C8470130A9D023689B0713D4E0689D
:10409000039B9842B8BF1846A2E701233246414627
:1040A0003846C847013099D00135E36803995B1A57
:1040B000AB42F2DCEBE7002504F11906F5E700BF9F
:1040C000194200082A420008884210B501EB020498
:1040D00002D98442234607D8431EA14207D011F8D3
:1040E000012B03F8012FF8E70244824200D110BDF2
:1040F00013F8011D02F8011DF7E7000038B5064D61
:104100000023044608462B60FCF730FF431C02D115
:104110002B6803B1236038BD540200200A44914249
:1041200000F1FF3300D1704710B511F8014B03F8CF
:10413000014F9142F9D110BD2DE9F04107461446D7
:104140000D4621B9BDE8F0411146FFF745BC2AB93B
:10415000FFF7D6FB25462846BDE8F08100F01AF8A7
:104160008442064602D8B4EB500FF4D821463846B4
:10417000FFF732FC804608B94546ECE7B4422246D8
:10418000294628BF3246FFF7C9FF29463846FFF7C0
:10419000B7FBF1E751F8043C181F002BBCBF0B58CC
:1041A000C0187047F8B500BFF8BC08BC9E46704701
:0C41B000F8B500BFF8BC08BC9E46704784
:1041BC0054656D703A20252E326620432C204875AC
:1041CC006D3A20252E32662025250D0A00000000B0
:1041DC005348543430204572726F723A2025640D66
:1041EC000A000000000000000000000001020304AF
:1041FC00060708090000000001020304232D302BE0
:10420C002000686C4C0065666745464700303132CB
:10421C003334353637383941424344454600303122
:10422C003233343536373839616263646566000081
:08423C00A4BFFF7F0100000098
:04424400C5010008A8
:04424800A1010008C8
:10424C000024F40010000000010000001000002009
:10425C00000000001C01002084010020EC01002063
:10426C000000000000000000000000000000000042
:10427C000000000000000000000000000000000032
:10428C000000000000000000000000000000000022
:0C429C0000000000000000000000000016
:04000005080010E1FE
:00000001FF
