:020000040800F2
:1000000000000120910D0008A10C0008A90C0008B7
:10001000B10C0008B90C0008C10C00080000000079
:10002000000000000000000000000000C90C0008F3
:10003000D70C000800000000E50C0008F30C0008D5
:10004000E10D0008E10D0008E10D0008E10D0008D8
:10005000E10D0008E10D0008E10D0008E10D0008C8
:10006000E10D0008E10D0008E10D0008E10D0008B8
:10007000E10D0008E10D0008E10D0008E10D0008A8
:10008000E10D0008E10D0008E10D0008000000008E
:10009000000000000000000000000000E10D00086A
:1000A000E10D0008E10D0008E10D0008E10D000878
:1000B000E10D0008E10D0008E10D0008E10D000868
:1000C000E10D0008E10D0008E10D0008E10D000858
:1000D000E10D0008E10D0008E10D0008000000003E
:1000E000E10D0008E10D0008E10D0008000000002E
:1000F000000000000000000000000000E10D00080A
:1001000000000000E10D0008E10D0008E10D00080D
:1001100000000000000000000000000000000000DF
:10012000E10D0008E10D0008E10D0008E10D0008F7
:10013000E10D0008000000000000000000000000C9
:10014000000000000000000000000000E10D0008B9
:10015000E10D0008E10D0008E10D0008E10D0008C7
:10016000E10D0008E10D00080000000000000000A3
:10017000000000000000000000000000000000007F
:1001800000000000E10D0008000000000000000079
:04019000E10D000875
:1001A00010B5054C237833B9044B13B10448AFF3B1
:1001B00000800123237010BD5C00002000000000BF
:1001C0003837000808B5034B1BB103490348AFF3A8
:1001D000008008BD000000006000002038370008E3
:1001E000034613F8012B002AFBD1181A0138704777
:1001F00001F0FF01102A2BDB10F0070F08D010F8D8
:10020000013B013A8B422DD010F0070F42B3F6D1DB
:10021000F0B441EA012141EA014122F007047FF0F4
:1002200000070023F0E80256083C85EA010586EA4B
:10023000010685FA47F5A3FA87F586FA47F6A5FA87
:1002400087F68EB9EED1F0BC01F0FF0102F0070293
:1002500032B110F8013B013A83EA010313B1F8D13E
:100260000020704701387047002D06BF354603381F
:10027000073815F0010F07D1013015F4807F02BF58
:10028000013015F4C03F0130F0BC0138704700BFA9
:1002900053B94AB9002908BF00281CBF4FF0FF31ED
:1002A0004FF0FF3000F088B9ADF1080C6DE904CED5
:1002B00000F006F8DDF804E0DDE9022304B0704741
:1002C0002DE9F047089D0F4604468C46002B48D187
:1002D0008A42164661D9B2FA82F34BB1C3F12002C9
:1002E00001FA03FC20FA02F29E4042EA0C0C9C4008
:1002F0004FEA164EB7B2BCFBFEF1220C0EFB11CC3E
:1003000042EA0C4201FB07F0904209D9B21801F110
:10031000FF3C80F0EE80904240F2EB8002393244A4
:10032000121AA4B2B2FBFEF00EFB102244EA024401
:1003300000FB07F7A74209D9341900F1FF3280F01A
:10034000DA80A74240F2D7803444023840EA0140C4
:10035000E41B00211DB1DC400023C5E90043BDE8DA
:10036000F0878B4206D90DB1C5E90001002108468E
:10037000BDE8F087B3FA83F1002948D1BB4202D32C
:10038000824200F20781841A67EB0302012094463F
:10039000002DE4D0C5E9004CE1E7002A00F092808E
:1003A000B2FA82F3002B40F0A8808A1A4FEA164E68
:1003B0001FFA86FC0121200CB2FBFEF70EFB172270
:1003C00040EA02420CFB07F0904207D9B21807F14D
:1003D000FF3802D2904200F2E2804746121AA4B2DD
:1003E000B2FBFEF00EFB102244EA02440CFB00FCC0
:1003F000A44507D9341900F1FF3202D2A44500F216
:10040000CB801046A4EB0C0440EA0740A2E7C1F100
:1004100020068B4022FA06FC4CEA030C07FA01F492
:1004200020FA06F3F7404FEA1C49234300FA01F88B
:100430001FFA8CFEB7FBF9F01C0C09FB107744EA9D
:10044000074400FB0EF7A74202FA01F20AD91CEB9F
:10045000040400F1FF3A80F09B80A74240F29880AC
:1004600002386444E41B9FB2B4FBF9F309FB134464
:1004700047EA044403FB0EFEA64509D91CEB04041D
:1004800003F1FF3780F08280A6457FD9023B6444A8
:1004900043EA0040A4EB0E04A0FB02E7BC42734613
:1004A000B94663D360D05DB1B8EB030264EB0904D5
:1004B00004FA06F622FA01F31E43CC40C5E90064B3
:1004C00000214CE76208480842EAC1710B0C43EA7C
:1004D00000438AB242EA0342B3FBF6F1E407B446B2
:1004E0003746B6461F23B0FBF6F0D21B41EA004167
:1004F00061E7614614E7104628E7C3F1200120FABE
:1005000001F29E4027FA01F19F403A434FEA164E0E
:100510001FFA86FCB1FBFEF70EFB1710110C41EA27
:10052000004107FB0CF8884504FA03F43AD9711826
:1005300007F1FF3001D288451FD8A1EB0801B1FBBC
:10054000FEF808FB0CF70EFB181192B242EA0142CA
:10055000BA422FD2B21808F1FF31C6D2BA42C4D281
:10056000A8F102013244C0E7F0459CD2BEEB020381
:1005700067EB0C070138B94695E7A6EB080841443C
:10058000B81EB1FBFEF808FB0CF7DCE73B467FE743
:10059000504667E70846FBE63444023832E7023F3C
:1005A00032441BE7A1EB08013846B1FBFEF808FB1B
:1005B0000CF7C8E7414698E7704700BF80B584B0A4
:1005C00000AF03460A46FB711346BB71FB7903F08B
:1005D0007F03DBB23B73BB797B73002201210A48A6
:1005E00000F000FF07F10C014FF0FF330222074833
:1005F00001F00BFC01220121034800F0F3FE00BFD3
:100600001037BD4680BD00BF0004024078000020C6
:1006100080B586B002AF0346FB71FB7963F07F03C0
:10062000DBB23B73FF237B7300233B81002201215C
:100630000B4800F0D7FE07F1080207F10C014FF05C
:10064000FF3300930223074801F023FD012201211B
:10065000034800F0C7FE7B7A18461037BD4680BDC0
:10066000000402407800002080B500AF642000F054
:100670002BFC0F20FFF7CCFF03463D2B01D00023BE
:1006800013E040212120FFF799FF7C212020FFF774
:1006900095FF00212320FFF791FF00212220FFF783
:1006A0008DFF142000F010FC0123184680BD0000CF
:1006B00080B58AB002AFF860B9607A60E823FB7752
:1006C000FB7F3B76FF237B76FF23BB76FF23FB7606
:1006D000FF233B77FF237B77FF23BB7707F11003D3
:1006E00000221A60C3F80320002201211A4800F0FA
:1006F00079FE07F1100207F118014FF0FF33009364
:100700000723164801F0C5FC01220121124800F020
:1007100069FEBB7C1BB21B021AB27B7C1BB213436B
:100720001AB2FB681A803B7D1BB21B021AB2FB7C1B
:100730001BB213431AB2BB681A80BB7D1BB21B02EB
:100740001AB27B7D1BB213431AB27B681A8000BFBA
:100750002037BD4680BD00BF000402407800002065
:1007600080B500AF2720FFF753FF034603F00803CF
:10077000002B14BF01230023DBB2184680BD00000C
:1007800080B584B002AF00F02DFB00F049F800F016
:1007900017F900F0B5F800F0E9F8FFF765FF034638
:1007A000002B0DD119491A4800F0A6F94FF48071B9
:1007B000184800F030FEC82000F086FB00BFF5E7C7
:1007C000FFF7CEFF0346002B1CD01349104800F062
:1007D00093F9BA1C391DBB1D1846FFF769FFB7F91D
:1007E00006301A46B7F904301946B7F902300093BB
:1007F0000B460A49064800F033F94FF4807105486A
:1008000000F009FE642000F05FFBD9E750370008D4
:10081000D00000200004024068370008703700084C
:1008200080B594B000AF07F12003302200211846B4
:1008300002F0FCFA07F10C0300221A605A609A6079
:10084000DA601A610023BB602A4B1B6C294A43F013
:1008500080531364274B1B6C03F08053BB60BB6851
:1008600000237B60244B1B6823F44043224A43F45B
:1008700000431360204B1B6803F440437B607B689C
:1008800002233B620123FB6210233B630223BB6311
:100890000023FB6308233B6454237B640223BB6473
:1008A0000423FB6407F12003184600F0CFFD034644
:1008B000002B01D000F0CEF8104B02221A700F234B
:1008C000FB6002233B6100237B614FF48053BB61DB
:1008D0000023FB6107F10C030221184601F02EF8FA
:1008E0000346002B01D000F0B5F800BF5037BD46DD
:1008F00080BD00BF0038024000700040003C024054
:1009000080B500AF174B184A1A60164B4FF482722D
:100910005A60144B00229A60124B0022DA60114B8D
:1009200000221A610F4B00225A610E4B4FF40072E5
:100930009A610C4B3022DA610A4B00221A62094B91
:1009400000225A62074B00229A62064B0A22DA62A0
:10095000044801F0D1F90346002B01D000F07AF8E9
:1009600000BF80BD780000200030014080B500AF9E
:10097000114B124A1A60104B4FF416525A600E4B2C
:1009800000229A600C4B0022DA600B4B00221A61A5
:10099000094B0C225A61084B00229A61064B002237
:1009A000DA61054801F0FAFD0346002B01D000F0A2
:1009B00051F800BF80BD00BFD000002000100140F2
:1009C00080B588B000AF07F10C0300221A605A60AE
:1009D0009A60DA601A610023BB601C4B1B6B1B4AD8
:1009E00043F001031363194B1B6B03F00103BB605E
:1009F000BB6800237B60154B1B6B144A43F002035A
:100A00001363124B1B6B03F002037B607B680122B4
:100A100040F201210E4800F0E5FC00224FF4807105
:100A20000B4800F0DFFC40F20133FB6001233B6127
:100A300000237B610023BB6107F10C0319460448C6
:100A400000F04CFB00BF2037BD4680BD003802409F
:100A50000004024080B400AF72B600BF00BFFDE7E3
:100A60000EB480B5C7B000AF07F58C73A3F58A73D9
:100A7000186007F58C73A3F58A731B68002B33D0BD
:100A8000D7F82431002B2FD007F5947207F58C731B
:100A9000A3F586731A6007F58C73A3F5867307F1C7
:100AA00010001B68D7F824214FF4807102F0B0F9D0
:100AB000C7F81401D7F81431002B16DDD7F814311C
:100AC000FF2B28BFFF23C7F81031D7F810319AB297
:100AD00007F1100107F58C73A3F58A704FF0FF330F
:100AE000006801F0ABFD00E000BF07F58E77BD4662
:100AF000BDE8804003B0704780B582B000AF786039
:100B000039607B68002B0ED03B68002B0BD0386817
:100B1000FFF766FB03469AB24FF0FF3339687868F7
:100B200001F08CFD00E000BF0837BD4680BD00002D
:100B300080B483B000AF00237B60104B5B6C0F4A26
:100B400043F4804353640D4B5B6C03F480437B6040
:100B50007B6800233B60094B1B6C084A43F08053C1
:100B60001364064B1B6C03F080533B603B6800BF73
:100B70000C37BD465DF8047B704700BF003802406B
:100B800080B58AB000AF786007F1140300221A60C4
:100B90005A609A60DA601A617B681B68194A93424E
:100BA0002BD100233B61184B5B6C174A43F48053F5
:100BB0005364154B5B6C03F480533B613B6900232A
:100BC000FB60114B1B6B104A43F0010313630E4B88
:100BD0001B6B03F00103FB60FB68E0237B610223D6
:100BE000BB610023FB6103233B6205237B6207F1AA
:100BF00014031946054800F071FA00BF2837BD46B6
:100C000080BD00BF003001400038024000000240BB
:100C100080B58AB000AF786007F1140300221A6033
:100C20005A609A60DA601A617B681B68194A9342BD
:100C30002CD100233B61184B5B6C174A43F0100327
:100C40005364154B5B6C03F010033B613B6900235D
:100C5000FB60114B1B6B104A43F0010313630E4BF7
:100C60001B6B03F00103FB60FB684FF4C0637B6107
:100C70000223BB610023FB6103233B6207237B62EA
:100C800007F114031946054800F028FA00BF283779
:100C9000BD4680BD00100140003802400000024007
:100CA00080B400AF00BFFDE780B400AF00BFFDE738
:100CB00080B400AF00BFFDE780B400AF00BFFDE728
:100CC00080B400AF00BFFDE780B400AF00BFBD46F9
:100CD0005DF8047B704780B400AF00BFBD465DF88F
:100CE000047B704780B400AF00BFBD465DF8047B55
:100CF000704780B500AF00F0C7F800BF80BD0000AE
:100D000080B586B000AF7860144A154BD31A7B616A
:100D10007B693B61134B1B68002B02D1114B124ABC
:100D20001A60104B1A687B6813443A699A4207D2DA
:100D300002F084F803460C221A604FF0FF3309E0FA
:100D4000084B1B68FB60074B1A687B681344054A15
:100D50001360FB6818461837BD4680BD00000120AF
:100D600000040000180100206802002080B400AFD9
:100D7000064BD3F88830054A43F47003C2F8883034
:100D800000BFBD465DF8047B704700BF00ED00E08A
:100D9000DFF834D0FFF7EAFF0C480D490D4A002375
:100DA00002E0D458C4500433C4188C42F9D30A4A20
:100DB0000A4C002301E013600432A242FBD302F08C
:100DC00043F8FFF7DDFC7047000001200000002021
:100DD0005C000020E03700085C0000206802002072
:100DE000FEE7000080B500AF0E4B1B680D4A43F4D0
:100DF000007313600B4B1B680A4A43F48063136053
:100E0000084B1B68074A43F480731360032000F00B
:100E100031F90F2000F008F8FFF78AFE002318468A
:100E200080BD00BF003C024080B582B000AF78605A
:100E3000124B1A68124B1B7819464FF47A73B3FBA6
:100E4000F1F3B2FBF3F3184600F03BF90346002B35
:100E500001D001230EE07B680F2B0AD800227968AD
:100E60004FF0FF3000F011F9064A7B681360002351
:100E700000E0012318460837BD4680BD0000002071
:100E8000080000200400002080B400AF064B1B784F
:100E90001A46064B1B681344044A136000BFBD4644
:100EA0005DF8047B704700BF080000201C01002093
:100EB00080B400AF034B1B681846BD465DF8047B49
:100EC000704700BF1C01002080B584B000AF78607F
:100ED000FFF7EEFFB8607B68FB60FB68B3F1FF3F94
:100EE00005D00A4B1B781A46FB681344FB6000BF11
:100EF000FFF7DEFF0246BB68D31AFA689A42F7D8BA
:100F000000BF00BF1037BD4680BD00BF08000020F5
:100F100080B485B000AF78607B6803F00703FB60A6
:100F20000C4BDB68BB60BA684FF6FF031340BB6035
:100F3000FB681A02BB68134343F0BF6343F40033FA
:100F4000BB60044ABB68D36000BF1437BD465DF880
:100F5000047B704700ED00E080B400AF044BDB6819
:100F60001B0A03F007031846BD465DF8047B704773
:100F700000ED00E080B483B000AF03463960FB7140
:100F800097F90730002B0ADB3B68DAB20C4997F976
:100F900007301201D2B20B4483F800230AE03B6809
:100FA000DAB20849FB7903F00F03043B1201D2B215
:100FB0000B441A7600BF0C37BD465DF8047B7047C2
:100FC00000E100E000ED00E080B489B000AFF8601F
:100FD000B9607A60FB6803F00703FB61FB69C3F14A
:100FE0000703042B28BF0423BB61FB690433062BD2
:100FF00002D9FB69033B00E000237B614FF0FF3225
:10100000BB6902FA03F3DA43BB681A407B699A4072
:101010004FF0FF317B6901FA03F3D9437B680B4042
:10102000134318462437BD465DF8047B7047000023
:1010300080B582B000AF78607B68013BB3F1807F00
:1010400001D301230FE00A4A7B68013B53600F2163
:101050004FF0FF30FFF78EFF054B00229A60044BE4
:1010600007221A60002318460837BD4680BD00BF1E
:1010700010E000E080B582B000AF78607868FFF7DC
:1010800047FF00BF0837BD4680BD80B586B000AFC2
:101090000346B9607A60FB7300237B61FFF75CFF56
:1010A00078617A68B9687869FFF78EFF024697F928
:1010B0000F3011461846FFF75DFF00BF1837BD46D9
:1010C00080BD80B582B000AF78607868FFF7B0FF70
:1010D000034618460837BD4680BD000080B489B07D
:1010E00000AF7860396000237B6100233B610023FF
:1010F000BB610023FB6159E10122FB6902FA03F3A2
:101100007B613B681B687A6913403B613A697B6984
:101110009A4240F048813B685B6803F00303012B6F
:1011200005D03B685B6803F00303022B30D17B687A
:101130009B68BB61FB695B00032202FA03F3DB439C
:10114000BA691340BB613B68DA68FB695B0002FA6D
:1011500003F3BA691343BB617B68BA699A607B6821
:101160005B68BB610122FB6902FA03F3DB43BA69E6
:101170001340BB613B685B681B0903F00102FB691C
:1011800002FA03F3BA691343BB617B68BA695A6018
:101190003B685B6803F00303032B17D07B68DB68B5
:1011A000BB61FB695B00032202FA03F3DB43BA690C
:1011B0001340BB613B689A68FB695B0002FA03F36A
:1011C000BA691343BB617B68BA69DA603B685B68E4
:1011D00003F00303022B23D1FB69DA087B68083292
:1011E00053F82230BB61FB6903F007039B000F2219
:1011F00002FA03F3DB43BA691340BB613B681A6927
:10120000FB6903F007039B0002FA03F3BA69134377
:10121000BB61FB69DA087B680832B96943F82210C0
:101220007B681B68BB61FB695B00032202FA03F366
:10123000DB43BA691340BB613B685B6803F00302A0
:10124000FB695B0002FA03F3BA691343BB617B6875
:10125000BA691A603B685B6803F44033002B00F006
:10126000A2800023FB60574B5B6C564A43F48043DB
:101270005364544B5B6C03F48043FB60FB68524A3D
:10128000FB699B08023352F82330BB61FB6903F012
:1012900003039B000F2202FA03F3DB43BA691340F6
:1012A000BB617B68494A934219D07B68484A9342A4
:1012B00013D07B68474A93420DD07B68464A9342DD
:1012C00007D07B68454A934201D1042308E00723F5
:1012D00006E0032304E0022302E0012300E00023F0
:1012E000FA6902F0030292009340BA691343BB61AA
:1012F0003549FB699B080233BA6941F82320384B12
:101300009B68BB613B69DB43BA691340BB613B68C7
:101310005B6803F48013002B03D0BA693B69134365
:10132000BB612F4ABB6993602D4BDB68BB613B6996
:10133000DB43BA691340BB613B685B6803F400138D
:10134000002B03D0BA693B691343BB61244ABB69D4
:10135000D360234B5B68BB613B69DB43BA691340D5
:10136000BB613B685B6803F40033002B03D0BA69B0
:101370003B691343BB611A4ABB695360184B1B6836
:10138000BB613B69DB43BA691340BB613B685B6887
:1013900003F48033002B03D0BA693B691343BB616C
:1013A0000F4ABB691360FB690133FB61FB690F2BBB
:1013B0007FF6A2AE00BF00BF2437BD465DF8047BB8
:1013C000704700BF00380240003801400000024072
:1013D0000004024000080240000C024000100240DD
:1013E000003C014080B483B000AF78600B467B8046
:1013F00013467B707B78002B03D07A887B689A61D8
:1014000003E07B881A047B689A6100BF0C37BD46F5
:101410005DF8047B704780B485B000AF78600B4600
:101420007B807B685B69FB607A88FB6813401A04E9
:10143000FB68D9437B880B401A437B689A6100BFE5
:101440001437BD465DF8047B7047000080B586B058
:1014500000AF78607B68002B01D1012367E27B68D5
:101460001B6803F00103002B75D0884B9B6803F0C9
:101470000C03042B0CD0854B9B6803F00C03082B4A
:1014800012D1824B5B6803F48003B3F5800F0BD15C
:101490007E4B1B6803F40033002B5BD07B685B68DA
:1014A000002B57D1012342E27B685B68B3F5803F94
:1014B00006D1764B1B68754A43F4803313601DE0F8
:1014C0007B685B68B3F5A02F0CD1704B1B686F4A2B
:1014D00043F4802313606D4B1B686C4A43F48033E4
:1014E00013600BE0694B1B68684A23F48033136078
:1014F000664B1B68654A23F4802313607B685B6836
:10150000002B13D0FFF7D4FC386108E0FFF7D0FCC4
:1015100002463B69D31A642B01D9032307E25B4BD4
:101520001B6803F40033002BF0D014E0FFF7C0FC7D
:10153000386108E0FFF7BCFC02463B69D31A642B14
:1015400001D90323F3E1514B1B6803F40033002B53
:10155000F0D100E000BF7B681B6803F00203002BA2
:1015600063D04A4B9B6803F00C03002B0BD0474B16
:101570009B6803F00C03082B1CD1444B5B6803F4FD
:101580008003002B16D1414B1B6803F00203002B94
:1015900005D07B68DB68012B01D00123C7E13B4B01
:1015A0001B6823F0F8027B681B69DB003749134393
:1015B0000B603AE07B68DB68002B20D0344B0122C3
:1015C0001A60FFF775FC386108E0FFF771FC02460E
:1015D0003B69D31A022B01D90323A8E12B4B1B68CB
:1015E00003F00203002BF0D0284B1B6823F0F80215
:1015F0007B681B69DB00254913430B6015E0244B16
:1016000000221A60FFF754FC386108E0FFF750FC35
:1016100002463B69D31A022B01D9032387E11B4BF6
:101620001B6803F00203002BF0D17B681B6803F0FA
:101630000803002B36D07B685B69002B16D0154B56
:1016400001221A60FFF734FC386108E0FFF730FC34
:1016500002463B69D31A022B01D9032367E10B4BE6
:101660005B6F03F00203002BF0D01BE0094B00225C
:101670001A60FFF71DFC38610EE0FFF719FC024607
:101680003B69D31A022B07D9032350E100380240EB
:1016900000004742800E4742884B5B6F03F0020315
:1016A000002BEAD17B681B6803F00403002B00F0D9
:1016B00097800023FB75814B1B6C03F08053002B3C
:1016C0000FD10023BB607D4B1B6C7C4A43F08053E1
:1016D00013647A4B1B6C03F08053BB60BB6801231F
:1016E000FB75774B1B6803F48073002B18D1744B88
:1016F0001B68734A43F480731360FFF7D9FB3861AA
:1017000008E0FFF7D5FB02463B69D31A022B01D94B
:1017100003230CE16A4B1B6803F48073002BF0D0A9
:101720007B689B68012B06D1644B1B6F634A43F0B7
:10173000010313671CE07B689B68052B0CD15F4B92
:101740001B6F5E4A43F0040313675C4B1B6F5B4ADD
:1017500043F0010313670BE0584B1B6F574A23F00C
:1017600001031367554B1B6F544A23F0040313679F
:101770007B689B68002B15D0FFF79AFB38610AE065
:10178000FFF796FB02463B69D31A41F28832934237
:1017900001D90323CBE0494B1B6F03F00203002B5D
:1017A000EED014E0FFF784FB38610AE0FFF780FB1E
:1017B00002463B69D31A41F28832934201D903238E
:1017C000B5E03E4B1B6F03F00203002BEED1FB7D17
:1017D000012B05D1394B1B6C384A23F0805313641D
:1017E0007B689B69002B00F0A180344B9B6803F061
:1017F0000C03082B5CD07B689B69022B41D1314BD9
:1018000000221A60FFF754FB386108E0FFF750FB35
:1018100002463B69D31A022B01D9032387E0274BE9
:101820001B6803F00073002BF0D17B68DA697B68DA
:101830001B6A1A437B685B6A9B011A437B689B6A3D
:101840005B08013B1B041A437B68DB6A1B061B49D0
:1018500013434B601B4B01221A60FFF729FB3861D1
:1018600008E0FFF725FB02463B69D31A022B01D99A
:1018700003235CE0114B1B6803F00073002BF0D0D6
:1018800054E0104B00221A60FFF712FB386108E0A9
:10189000FFF70EFB02463B69D31A022B01D9032343
:1018A00045E0064B1B6803F00073002BF0D13DE0D0
:1018B0007B689B69012B07D1012338E00038024087
:1018C00000700040600047421B4B5B68FB607B6818
:1018D0009B69012B28D0FB6803F480027B68DB69DD
:1018E0009A4221D1FB6803F03F027B681B6A9A424F
:1018F0001AD1FA6847F6C07313407A68526A9201A7
:10190000934211D1FB6803F440327B689B6A5B0809
:10191000013B1B049A4207D1FB6803F070627B68AD
:10192000DB6A1B069A4201D0012300E0002318461F
:101930001837BD4680BD00BF0038024080B584B076
:1019400000AF786039607B68002B01D10123CCE0C7
:10195000684B1B6803F007033A689A420CD9654B41
:101960003A68D2B21A70634B1B6803F007033A68F7
:101970009A4201D00123B8E07B681B6803F00203A0
:10198000002B20D07B681B6803F00403002B05D0DC
:10199000594B9B68584A43F4E05393607B681B683B
:1019A00003F00803002B05D0534B9B68524A43F4C5
:1019B00060439360504B9B6823F0F0027B689B6808
:1019C0004D4913438B607B681B6803F00103002BB8
:1019D00044D07B685B68012B07D1474B1B6803F43D
:1019E0000033002B19D101237FE07B685B68022B59
:1019F00003D07B685B68032B07D13F4B1B6803F068
:101A00000073002B09D101236FE03B4B1B6803F0EF
:101A10000203002B01D1012367E0374B9B6823F0C1
:101A200003027B685B68344913438B60FFF740FA1D
:101A3000F8600AE0FFF73CFA0246FB68D31A41F26D
:101A40008832934201D903234FE02B4B9B6803F06C
:101A50000C027B685B689B009A42EBD1254B1B68AC
:101A600003F007033A689A420CD2224B3A68D2B28A
:101A70001A70204B1B6803F007033A689A4201D0A2
:101A8000012332E07B681B6803F00403002B08D0BD
:101A9000194B9B6823F4E0527B68DB6816491343BB
:101AA0008B607B681B6803F00803002B09D0124B86
:101AB0009B6823F460427B681B69DB000E4913437B
:101AC0008B6000F021F802460B4B9B681B0903F06A
:101AD0000F030A49CB5C22FA03F3094A1360094B4E
:101AE0001B681846FFF7A0F9002318461037BD46BB
:101AF00080BD00BF003C024000380240843700082F
:101B000000000020040000202DE9B04F90B000AF8D
:101B100000237B630023FB6300233B630023BB6341
:101B2000584B9B6803F00C03082B0DD0082B00F2D8
:101B3000A080002B02D0042B03D09AE0524BBB6351
:101B40009AE0524BBB6397E04E4B5B6803F03F0358
:101B50007B634C4B5B6803F48003002B27D0494B1D
:101B60005B689B0900223B627A623B6AC3F3080010
:101B70000021464B03FB01F2002300FB03F3134457
:101B8000424AA0FB0221F962BA62FA6A1344FB627C
:101B90007B6B0022BB61FA61D7E90623D7E90A0112
:101BA000FEF776FB02460B461346FB6353E0354BCC
:101BB0005B689B0900223B617A613B69C3F3080AB9
:101BC0004FF0000B52465B464FF000004FF0000113
:101BD000590141EAD261500102460B46B2EB0A08B4
:101BE00063EB0B094FF000024FF000034FEA89133B
:101BF00043EA98634FEA8812B2EB080463EB0905E5
:101C00004FF000024FF00003EB0043EA5473E20090
:101C100014461D4614EB0A033B6045EB0B037B6047
:101C20004FF000024FF00003D7E9004529468B0230
:101C3000214643EA915321468A02104619467B6B9E
:101C40000022BB60FA60D7E90223FEF721FB0246BF
:101C50000B461346FB630B4B5B681B0C03F0030343
:101C600001335B003B63FA6B3B6BB2FBF3F3BB638B
:101C700002E0054BBB6300BFBB6B18464037BD4657
:101C8000BDE8B08F003802400024F40040787D01A8
:101C900080B400AF034B1B681846BD465DF8047B5B
:101CA000704700BF0000002080B500AFFFF7F0FFD5
:101CB0000246054B9B689B0A03F007030349CB5C74
:101CC00022FA03F3184680BD00380240943700081A
:101CD00080B500AFFFF7DCFF0246054B9B685B0B4E
:101CE00003F007030349CB5C22FA03F3184680BDD7
:101CF000003802409437000880B582B000AF7860A9
:101D00007B68002B01D101237BE07B685B6A002BA1
:101D100008D17B685B68B3F5827F09D07B680022BD
:101D2000DA6105E07B6800221A617B6800225A6153
:101D30007B6800229A627B6893F85130DBB2002BFB
:101D400006D17B68002283F850207868FEF718FFE0
:101D50007B68022283F851207B681B681A687B68C5
:101D60001B6822F040021A607B685B6803F4827291
:101D70007B689B6803F404431A437B68DB6803F4C5
:101D800000631A437B681B6903F002031A437B68F4
:101D90005B6903F001031A437B689B6903F40073DA
:101DA0001A437B68DB6903F038031A437B681B6ABC
:101DB00003F0800342EA03017B689B6A03F400524C
:101DC0007B681B680A431A607B689B691B0C03F0E5
:101DD00004017B685B6A03F010027B681B680A439E
:101DE0005A607B681B68DA697B681B6822F40062B2
:101DF000DA617B6800225A657B68012283F85120F2
:101E0000002318460837BD4680BD80B588B000AFB6
:101E1000F860B9603B601346FB80FFF749F8F86152
:101E2000FB887B83FB6893F85130DBB2012B01D038
:101E300002232AE1BB68002B02D0FB88002B01D1D2
:101E4000012322E1FB6893F85030012B01D10223DA
:101E50001BE1FB68012283F85020FB68032283F812
:101E60005120FB6800225A65FB68BA681A63FB6858
:101E7000FA889A86FB68FA88DA86FB6800229A63F9
:101E8000FB6800229A87FB680022DA87FB68002241
:101E90005A64FB6800221A64FB689B68B3F5004F24
:101EA0000FD1FB681B681A68FB681B6822F04002B0
:101EB0001A60FB681B681A68FB681B6842F4804262
:101EC0001A60FB681B681B6803F04003402B07D0B7
:101ED000FB681B681A68FB681B6842F040021A60C6
:101EE000FB68DB68B3F5006F52D1FB685B68002BC1
:101EF00002D07B8B012B45D1FB681B6B1A88FB68DA
:101F00001B68DA60FB681B6B9A1CFB681A63FB6832
:101F1000DB8E9BB2013B9AB2FB68DA8632E0FB684B
:101F20001B689B6803F00203022B12D1FB681B6B3A
:101F30001A88FB681B68DA60FB681B6B9A1CFB68DD
:101F40001A63FB68DB8E9BB2013B9AB2FB68DA86B0
:101F500018E0FEF7ADFF0246FB69D31A3A689A42D1
:101F600003D83B68B3F1FF3F02D13B68002B09D196
:101F7000FB68012283F85120FB68002283F850207F
:101F8000032382E0FB68DB8E9BB2002BC7D153E0BA
:101F9000FB685B68002B02D07B8B012B47D1FB6871
:101FA0001A6BFB681B680C3312781A70FB681B6B8A
:101FB0005A1CFB681A63FB68DB8E9BB2013B9AB22A
:101FC000FB68DA8633E0FB681B689B6803F002035A
:101FD000022B13D1FB681A6BFB681B680C33127859
:101FE0001A70FB681B6B5A1CFB681A63FB68DB8E5C
:101FF0009BB2013B9AB2FB68DA8618E0FEF758FF05
:102000000246FB69D31A3A689A4203D83B68B3F197
:10201000FF3F02D13B68002B09D1FB68012283F806
:102020005120FB68002283F8502003232DE0FB6839
:10203000DB8E9BB2002BC6D1FA693968F86800F0D4
:1020400059FA0346002B02D0FB6820225A65FB6830
:102050009B68002B0AD100237B61FB681B68DB684F
:102060007B61FB681B689B687B617B69FB68012265
:1020700083F85120FB68002283F85020FB685B6DD9
:10208000002B01D0012300E0002318462037BD4675
:1020900080BD80B58AB000AFF860B9607A607B809F
:1020A00001237B62FEF704FF3862FB6893F851302E
:1020B000FB77FB685B68BB617B88FB82FB7F012B46
:1020C0000CD0BB69B3F5827F06D1FB689B68002BFF
:1020D00002D1FB7F042B01D002237FE1BB68002BE0
:1020E00005D07B68002B02D07B88002B01D1012317
:1020F00074E1FB6893F85030012B01D102236DE1AC
:10210000FB68012283F85020FB6893F85130DBB262
:10211000042B03D0FB68052283F85120FB680022C2
:102120005A65FB687A689A63FB687A88DA87FB6885
:102130007A889A87FB68BA681A63FB687A88DA86B5
:10214000FB687A889A86FB6800221A64FB68002282
:102150005A64FB681B681B6803F04003402B07D0E0
:10216000FB681B681A68FB681B6842F040021A6033
:10217000FB68DB68B3F5006F7ED1FB685B68002B02
:1021800002D0FB8A012B6CD1FB681B6B1A88FB68A1
:102190001B68DA60FB681B6B9A1CFB681A63FB68A0
:1021A000DB8E9BB2013B9AB2FB68DA8659E0FB6892
:1021B0001B689B6803F00203022B1BD1FB68DB8EBC
:1021C0009BB2002B16D07B6A012B13D1FB681B6BD3
:1021D0001A88FB681B68DA60FB681B6B9A1CFB683B
:1021E0001A63FB68DB8E9BB2013B9AB2FB68DA860E
:1021F00000237B62FB681B689B6803F00103012BD3
:1022000019D1FB68DB8F9BB2002B14D0FB681B68D5
:10221000DA68FB689B6B92B21A80FB689B6B9A1C16
:10222000FB689A63FB68DB8F9BB2013B9AB2FB6849
:10223000DA8701237B62FEF73BFE02463B6AD31A34
:102240003A6B9A420DD83B6BB3F1FF3F09D0FB6864
:10225000012283F85120FB68002283F850200323D9
:10226000BCE0FB68DB8E9BB2002BA0D1FB68DB8F50
:102270009BB2002B9BD182E0FB685B68002B02D0F5
:10228000FB8A012B71D1FB681A6BFB681B680C334E
:1022900012781A70FB681B6B5A1CFB681A63FB6888
:1022A000DB8E9BB2013B9AB2FB68DA865DE0FB688D
:1022B0001B689B6803F00203022B1CD1FB68DB8EBA
:1022C0009BB2002B17D07B6A012B14D1FB681A6BD1
:1022D000FB681B680C3312781A70FB681B6B5A1C66
:1022E000FB681A63FB68DB8E9BB2013B9AB2FB680A
:1022F000DA8600237B62FB681B689B6803F001039E
:10230000012B19D1FB68DB8F9BB2002B14D0FB682B
:102310001B68DA68FB689B6BD2B21A70FB689B6B18
:102320005A1CFB689A63FB68DB8F9BB2013B9AB235
:10233000FB68DA8701237B62FEF7BAFD02463B6A3F
:10234000D31A3A6B9A4203D83B6BB3F1FF3F02D1E9
:102350003B6B002B09D1FB68012283F85120FB68FD
:10236000002283F85020032338E0FB68DB8E9BB209
:10237000002B9CD1FB68DB8F9BB2002B97D13A6A74
:10238000396BF86800F0B6F80346002B08D0FB68FC
:1023900020225A65FB68002283F8502001231DE0AB
:1023A000FB689B68002B0AD100233B61FB681B681C
:1023B000DB683B61FB681B689B683B613B69FB68B2
:1023C000012283F85120FB68002283F85020FB682B
:1023D0005B6D002B01D0012300E000231846283755
:1023E000BD4680BD80B588B000AFF860B9603B6085
:1023F0001346FB71FEF75CFD0246BB6A9B1A3A6806
:102400001344FB61FEF754FDB861394B1B685B0157
:102410001B0DFA6902FB03F37B6155E03B68B3F1E6
:10242000FF3F51D0FEF744FD0246BB69D31AFA695B
:102430009A4202D9FB69002B3DD1FB681B685A68A0
:10244000FB681B6822F0E0025A60FB685B68B3F52A
:10245000827F11D1FB689B68B3F5004F04D0FB6805
:102460009B68B3F5806F07D1FB681B681A68FB682F
:102470001B6822F040021A60FB689B6AB3F5005F9C
:102480000FD1FB681B681A68FB681B6822F40052B6
:102490001A60FB681B681A68FB681B6842F40052EC
:1024A0001A60FB68012283F85120FB68002283F840
:1024B0005020032318E07B69002B02D10023FB612D
:1024C00002E07B69013B7B61FB681B689A68BB6823
:1024D0001340BA689A420CBF01230023DBB21A46AC
:1024E000FB799A429AD1002318462037BD4680BD19
:1024F0000000002080B588B002AFF860B9607A6053
:102500007B680093BB6801220221F868FFF76AFF2D
:102510000346002B07D0FB685B6D43F02002FB688D
:102520005A65032332E01B4B1B681B4AA2FB0323A3
:102530005B0D4FF47A7202FB03F37B61FB685B680F
:10254000B3F5827F12D17B680093BB6800228021A3
:10255000F868FFF747FF0346002B16D0FB685B6D5A
:1025600043F02002FB685A6503230FE07B69002BD0
:102570000AD07B69013B7B61FB681B689B6803F0A9
:102580008003802BF2D000E000BF002318461837EC
:10259000BD4680BD00000020819F5E1680B582B0E0
:1025A00000AF78607B68002B01D1012342E07B689B
:1025B00093F84130DBB2002B06D17B68002283F810
:1025C00040207868FEF724FB7B68242283F84120B2
:1025D0007B681B68DA687B681B6822F40052DA604B
:1025E000786800F073F97B681B681A697B681B6860
:1025F00022F490421A617B681B685A697B681B68E9
:1026000022F02A025A617B681B68DA687B681B68C3
:1026100042F40052DA607B6800225A647B68202210
:1026200083F841207B68202283F842207B680022C7
:102630005A63002318460837BD4680BD80B58AB06E
:1026400002AFF860B9603B601346FB8000237B61FA
:10265000FB6893F84130DBB2202B75D1BB68002BAF
:1026600002D0FB88002B01D101236EE0FB68002221
:102670005A64FB68212283F84120FEF719FC786137
:10268000FB68FA889A84FB68FA88DA84FB689B689E
:10269000B3F5805F08D1FB681B69002B04D10023D0
:1026A000FB61BB68BB6103E0BB68FB610023BB61EE
:1026B0002EE03B6800937B6900228021F86800F0DF
:1026C00048F80346002B05D0FB68202283F8412000
:1026D00003233AE0FB69002B0BD1BB691B881A4628
:1026E000FB681B68C2F308025A60BB690233BB6116
:1026F00007E0FB691A78FB681B685A60FB690133C5
:10270000FB61FB68DB8C9BB2013B9AB2FB68DA840D
:10271000FB68DB8C9BB2002BCBD13B6800937B69C1
:1027200000224021F86800F014F80346002B05D081
:10273000FB68202283F84120032306E0FB68202267
:1027400083F84120002300E0022318462037BD46CD
:1027500080BD80B586B000AFF860B9603B601346BD
:10276000FB713BE03B6AB3F1FF3F37D0FEF7A0FBC4
:1027700002463B68D31A3A6A9A4202D33B6A002B5C
:1027800001D103233AE0FB681B68DB6803F0040314
:10279000002B23D0BB68802B20D0BB68402B1DD0E2
:1027A000FB681B681B6803F00803082B16D1002385
:1027B0007B61FB681B681B687B61FB681B685B684F
:1027C0007B617B69F86800F01DF8FB6808225A6499
:1027D000FB68002283F8402001230FE0FB681B68A0
:1027E0001A68BB681340BA689A420CBF01230023E1
:1027F000DBB21A46FB799A42B4D000231846183748
:10280000BD4680BD80B495B000AF78607B681B6822
:102810000C337B637B6B53E8003F3B633B6B23F4E0
:102820009073FB647B681B680C33FA6C3A64FB633F
:10283000F96B3A6C41E80023BB63BB6B002BE5D11D
:102840007B681B6814333B623B6A53E8003FFB61C3
:10285000FB6923F00103BB647B681B681433BA6C0B
:10286000FA62BB62B96AFA6A41E800237B627B6A5A
:10287000002BE5D17B681B6B012B19D17B681B6892
:102880000C33FB60FB6853E8003FBB60BB6823F080
:1028900010037B647B681B680C337A6CBA617B61C4
:1028A0007969BA6941E800233B613B69002BE5D1B6
:1028B0007B68202283F842207B6800221A6300BFD5
:1028C0005437BD465DF8047B704700002DE9B04FDA
:1028D000C0B000AFC7F8F400D7F8F4301B681B692C
:1028E00023F44050D7F8F430D968D7F8F4301A6898
:1028F00040EA01031361D7F8F4309A68D7F8F4304E
:102900001B691A43D7F8F4305B691A43D7F8F430DF
:10291000DB691343C7F8F830D7F8F4301B68DB687D
:1029200023F4164121F00C01D7F8F4301A68D7F8D7
:10293000F8300B43D360D7F8F4301B685B6923F49D
:102940004070D7F8F4309969D7F8F4301A6840EA43
:1029500001035361D7F8F4301A688F4B9A4205D0BF
:10296000D7F8F4301A688D4B9A4204D1FFF7B0F9CA
:10297000C7F8FC0003E0FFF797F9C7F8FC00D7F8A9
:10298000F430DB69B3F5004F40F00C81D7F8FC3030
:102990000022C7F8E830C7F8EC20D7E93A452246CC
:1029A0002B469118B9655B41FB65D7E91623214693
:1029B00012EB0108294643EB01094FF000024FF0EA
:1029C00000034FEAC90343EA58734FEAC80290462E
:1029D0009946234618EB0303C7F8E0302B4649EB32
:1029E0000303C7F8E430D7F8F4305B680022C7F877
:1029F000D830C7F8DC20D7E936120B46DB183B6528
:102A0000134642EB03037B65D7E91423D7E938016A
:102A1000FDF73EFC02460B46614BA3FB02235B091C
:102A20001C01D7F8FC300022C7F8D030C7F8D420FA
:102A3000D7E9348942464B469118B9645B41FB643F
:102A4000D7E91223414612EB010A494643EB010B39
:102A50004FF000024FF000034FEACB0343EA5A73F2
:102A60004FEACA0292469B4643461AEB0303C7F855
:102A7000C8304B464BEB0303C7F8CC30D7F8F430E3
:102A80005B680022C7F8C030C7F8C420D7E930120D
:102A90000B46DB183B64134642EB03037B64D7E928
:102AA0001023D7E93201FDF7F3FB02460B4611462E
:102AB0003B4BA3FB01235B09642202FB03F3CB1A0C
:102AC000DB0003F13202364BA3FB02235B095B0000
:102AD00003F4F8731C44D7F8FC300022C7F8B83070
:102AE000C7F8BC20D7E92E8942464B469118B963F6
:102AF0005B41FB63D7E90E234146511839634946D0
:102B00004B417B634FF000024FF00003D7E90CAB61
:102B10005946CB00514643EA51735146CA0010460C
:102B20001946034642469B18C7F8B0304B460A4642
:102B300042EB0303C7F8B430D7F8F4305B680022E7
:102B4000C7F8A830C7F8AC20D7E92A120B46DB1823
:102B5000BB62134642EB0303FB62D7E90A23D7E9C2
:102B60002C01FDF795FB02460B460D4BA3FB021310
:102B70005B09642101FB03F3D31ADB003233084AFB
:102B8000A2FB03235B0903F00702D7F8F4301B68AC
:102B900022449A6006E100BF001001400014014089
:102BA0001F85EB51D7F8FC300022C7F8A030C7F8DA
:102BB000A420D7E9288942464B46911839625B41E7
:102BC0007B62D7E9082341465418494643EB010587
:102BD0004FF000024FF00003EB0043EA5473E200B1
:102BE00014461D464346E318C7F898304B4645EB5C
:102BF0000303C7F89C30D7F8F4305B680022C7F8AD
:102C00009030C7F894204FF000024FF00003D7E94E
:102C1000244529468B00214643EA917321468A00C8
:102C2000D7E92601FDF734FB02460B46604BA3FBB8
:102C300002235B091C01D7F8FC300022C7F888305A
:102C4000C7F88C20D7E9228942464B469118B961D2
:102C50005B41FB61D7E9062341465118396149467A
:102C60004B417B614FF000024FF00003D7E904AB0A
:102C70005946CB00514643EA51735146CA001046AB
:102C80001946034642469B18C7F880304B460A4611
:102C900042EB0303C7F88430D7F8F4305B680022B6
:102CA000BB67FA674FF000024FF00003D7E91E89B7
:102CB00049468B00414643EA917341468A00D7E971
:102CC0002001FDF7E5FA02460B461146384BA3FBFF
:102CD00001235B09642202FB03F3CB1A1B0132338D
:102CE000334AA2FB03235B0903F0F0031C44D7F82B
:102CF000FC3000223B677A67D7E91C8942464B4685
:102D00009118B9605B41FB60D7E902234146511835
:102D1000396049464B417B604FF000024FF00003A1
:102D2000D7E900AB5946CB00514643EA51735146AF
:102D3000CA0010461946034642469B18BB664B46DE
:102D40000A4642EB0303FB66D7F8F4305B680022C7
:102D50003B667A664FF000024FF00003D7E918890E
:102D600049468B00414643EA917341468A00D7E9C0
:102D70001A01FDF78DFA02460B460D4BA3FB021319
:102D80005B09642101FB03F3D31A1B013233084AA8
:102D9000A2FB03235B0903F00F02D7F8F4301B6892
:102DA00022449A6000BF07F58077BD46BDE8B08F2A
:102DB0001F85EB5130B51446002C9BB005461A46D2
:102DC00005DA8B2303604FF0FF301BB030BD4FF4AA
:102DD0000273ADF80C304FF00003199314BF04F1E7
:102DE000FF332346029305934FF6FF73009104913E
:102DF000ADF80E3069461E9B00F0A4F9431CBCBF21
:102E00008B232B60002CE0D0009B00221A70DCE7A3
:102E100007B5009313460A46014603480068FFF7CA
:102E2000C9FF03B000BD00BF0C00002002440346F0
:102E3000934200D1704703F8011BF9E7014B186872
:102E4000704700BF0C00002070B50D4B0D4D5B1B93
:102E50009C100026A64209D100F06EFC0A4D0B4BD7
:102E60005B1B9C100026A64205D170BD55F8043BA3
:102E700098470136EEE755F8043B98470136F2E7EC
:102E8000D8370008D8370008D8370008DC370008E2
:102E90007047704738B50546002941D051F8043CC9
:102EA0000C1F002BB8BFE41800F0E0F81D4A1368AF
:102EB00033B9636014602846BDE8384000F0DCB8E0
:102EC000A34208D9206821188B4201BF19685B68AA
:102ED00009182160EDE71A465B680BB1A342FAD9E5
:102EE00011685018A0420BD1206801445018834249
:102EF0001160E0D118685B68536008441060DAE73D
:102F000002D90C232B60D6E7206821188B4204BF1E
:102F100019685B68636004BF091821605460CAE7E0
:102F200038BD00BF6402002070B50F4E0C463168FA
:102F3000054611B900F0ACFB30602146284600F090
:102F4000A7FB431C03D14FF0FF34204670BDC41CC7
:102F500024F00304A042F8D0211A284600F098FB80
:102F60000130F2D1EFE700BF600200202DE9F84305
:102F7000CD1C25F0030508350C2D38BF0C25002D80
:102F8000064601DBA94204D90C2333600020BDE8CA
:102F9000F883DFF8D48000F069F8D8F800301C46D8
:102FA00044BB29463046FFF7BFFF431C044658D1B7
:102FB000D8F800402746002F43D1002C4BD023687F
:102FC0003946304604EB030900F062FB814542D1EB
:102FD00021686D1A29463046FFF7A6FF01303AD026
:102FE00023682B442360D8F800305A6862BBC8F8C5
:102FF00000700FE02268521B20D40B2A17D96119E8
:10300000A342256018BF5960636808BFC8F8001064
:1030100062514B60304600F02FF804F10B00231D85
:1030200020F00700C21A1CBF1B1AA350AFE762684A
:10303000A3420CBFC8F800205A60EBE7234664683F
:10304000AEE73C467F68B6E71A465B68A342FBD111
:1030500000235360DEE70C233360304600F00CF8A9
:1030600094E70560D6E700BF640200200148FFF73F
:103070000FBF00BF5C0200200148FFF70ABF00BF7E
:103080005C0200202DE9F0478E681F46BE42824652
:103090000C469046334653D8B1F90C0010F4906FAB
:1030A0002BD065692368096905EB4505A3EB010988
:1030B00005EBD5757B1C6D104B44AB422A4684BF93
:1030C0001D462A46430527D511465046FFF74EFFB9
:1030D000064658B321694A4600F0EAFAA38923F468
:1030E000906343F08003A381266165614E44A5EBA4
:1030F00009052660A5603E463B461F4620683A46C5
:10310000414600F0ABFAA3689B1BA36023683B44D5
:1031100023600020BDE8F087504600F0D7FA06464D
:103120000028E1D121695046FFF7B4FE0C23CAF80C
:103130000030A38943F04003A3814FF0FF30E9E75B
:103140003E46DBE72DE9F0471F468B891B069CB006
:1031500006460D46144610D50B6973B94021FFF79A
:1031600005FF2860286130B90C2333604FF0FF3031
:103170001CB0BDE8F08740236B6100230993202336
:103180008DF8293003973023654F8DF82A304FF0A2
:1031900001082346994613F8012B0AB1252AF9D1D3
:1031A000B9EB040A0BD05346224629463046FFF7B6
:1031B00069FF013000F0A480099A5244099299F8FD
:1031C0000030002B00F09C8000234FF0FF32CDE94F
:1031D000052309F10109049307938DF853301A93DD
:1031E0004C464F4814F8011B0522FDF701F8049BDB
:1031F000D0B9D80644BF20228DF85320190744BF08
:103200002B228DF8532099F800202A2A13D0079AF0
:103210004C4600204FF00A0C214611F8013B303B90
:10322000092B49D968B913E0C01B08FA00F018430C
:103230000490A146D4E7039A111D12680391002A55
:1032400001DB079204E0524243F002030792049329
:1032500023782E2B0AD163782A2B32D1039B1A1D97
:103260001B68039243EAE37302340593DFF8C090CE
:10327000217803224846FCF7BBFF38B1049BA0EB42
:1032800009004022824013430134049314F8011BC7
:1032900024488DF828100622FCF7AAFF002835D014
:1032A000214818BB039B073323F00703083303931C
:1032B000099B034409936CE70CFB02320C46012086
:1032C000AAE700230134059319464FF00A0C204663
:1032D00010F8012B303A092A03D9002BC6D00591EA
:1032E000C4E70CFB012104460123F0E703AB009384
:1032F0002A460E4B04A93046AFF30080421CD7D1BA
:10330000AB895B063FF532AF099831E703AB009319
:103310002A46064B04A9304600F07AF8EEE700BFD3
:103320009C370008A6370008000000008530000820
:10333000A23700082DE9F047164698468A680B69BF
:10334000DDF820909342B8BF1346336091F84320D4
:1033500007460C460AB1013333602368990642BF21
:10336000336802333360256815F0060506D104F191
:10337000190AE36832689B1AAB4226DC94F84330A2
:103380002268003B18BF012392062BD404F14302AC
:1033900041463846C84701301ED02368226903F0F1
:1033A0000603042B02BFE5683368ED1AA3680CBF5F
:1033B00025EAE57500259342C4BF9B1AED18002647
:1033C0001A34B5421AD1002008E001235246414682
:1033D0003846C847013003D14FF0FF30BDE8F087D1
:1033E0000135C6E7E1185A1C302081F84300224419
:1033F00094F8451082F843100233C7E701232246B0
:1034000041463846C8470130E6D00136D9E70000CA
:103410002DE9F0430D7E85B0782D90460C9E074631
:103420000C46994601F1430207D8622D0AD8002DB7
:1034300000F0D780582D00F0BC8004F1420684F8DB
:1034400042503BE0A5F16303152BF6D801A151F8DA
:1034500023F000BFAD340008C13400083B3400083D
:103460003B3400083B3400083B340008C1340008FA
:103470003B3400083B3400083B3400083B34000870
:10348000C9350008EB3400087B3500083B340008E0
:103490003B340008EB3500083B340008EB340008EF
:1034A0003B3400083B3400088335000833681A1D9C
:1034B0001B68326004F1420684F842300123A1E027
:1034C00033682068191D3160060601D51D6803E0C8
:1034D0004506FBD5B3F90050002D03DA2D236D42CC
:1034E00084F843305B480A2311E0216833680806FA
:1034F00053F8045B02D4490648BFADB23360237E63
:1035000054486F2B5CD10823002184F8431066686F
:10351000A660002E05DB21682E4321F00401216006
:1035200050D01646B5FBF3F103FB115C10F80CC04C
:1035300006F801CDAC4663450D46F3D9082B0BD1F7
:103540002368DB0708D5236961689942DEBF302311
:1035500006F8013C06F1FF36921B2261CDF800907F
:10356000434603AA21463846FFF7E4FE01304ED118
:103570004FF0FF3005B0BDE8F083236843F020032F
:1035800023603548782584F845502368316813F066
:10359000800F51F8045B03D113F0400F18BFADB298
:1035A0003160D90744BF43F0200323601DB11023CD
:1035B000AAE72848E7E7236823F020032360F6E71B
:1035C0000A23A1E71646B9E7336825686169181D23
:1035D00030602E061B6801D5196002E06806FBD535
:1035E0001980002323611646B8E733681A1D32603C
:1035F0001E68626800213046FCF7FAFD08B1801BA6
:10360000606063682361002384F84330A6E7236980
:10361000324641463846C8470130A9D023689B0747
:1036200013D4E068039B9842B8BF1846A2E7012371
:10363000324641463846C847013099D00135E368E3
:1036400003995B1AAB42F2DCEBE7002504F11906A3
:10365000F5E700BFAD370008BE370008884210B557
:1036600001EB020402D98442234607D8431EA1423B
:1036700007D011F8012B03F8012FF8E7024482422A
:1036800000D110BD13F8011D02F8011DF7E700007D
:1036900038B5064D0023044608462B60FDF730FB85
:1036A000431C02D12B6803B1236038BD58020020AF
:1036B0000A44914200F1FF3300D1704710B511F870
:1036C000014B03F8014F9142F9D110BD2DE9F041B2
:1036D000074614460D4621B9BDE8F0411146FFF7F3
:1036E00045BC2AB9FFF7D6FB25462846BDE8F08140
:1036F00000F01AF88442064602D8B4EB500FF4D812
:1037000021463846FFF732FC804608B94546ECE7CB
:10371000B4422246294628BF3246FFF7C9FF294650
:103720003846FFF7B7FBF1E751F8043C181F002BB0
:10373000BCBF0B58C0187047F8B500BFF8BC08BC38
:103740009E467047F8B500BFF8BC08BC9E4670475F
:103750004C4953334D444C20496E6974204661698D
:103760006C6564210D0A000072656164790D0A00C0
:10377000416E737765723A202564202564202564A4
:103780000D0A000000000000000000000102030418
:10379000060708090000000001020304232D302B56
:1037A0002000686C4C006566674546470030313242
:1037B0003334353637383941424344454600303199
:1037C00032333435363738396162636465660000F8
:0837D00010CAFF7F0100000098
:0437D800C50100081F
:0437DC00A10100083F
:1037E0000024F40010000000010000001000002080
:1037F000000000002001002088010020F0010020CE
:1038000000000000000000000000000000000000B8
:1038100000000000000000000000000000000000A8
:103820000000000000000000000000000000000098
:0C3830000000000000000000000000008C
:0400000508000D9151
:00000001FF
